:1000000000020400000000002003000020030000A4
:100010002003000020030000200300002003000054
:100020002003000020030000200300002003000044
:100030002003000020030000200300002003000034
:100040002003000020030000200300002003000024
:04034800200300008E
:100400006FD521000E7F22000E0188000000000041
:10041000000020000000E000020032000001200087
:100420002002880014000700C90007000000E00057
:1004300003003A00200725000100200002003700D9
:100440000000200001002000810F70000100320038
:1004500014000700000020000000E000020032004D
:1004600000000200000000008E34020000000000C6
:100470000040DA000000FE004440A900006E2000A9
:100480000000E0000300320000002000A00188000E
:100490004440A800000006008A1F78008B1F7800E7
:1004A0000000060091018800800478000000EB0045
:1004B0001A003700E284440032A0B4009905BA0063
:1004C000E284440032A0B4009906BA00E2844400F9
:1004D00032A0B4000006EB00476FDE00FD07B2005B
:1004E000636CE10003003A00EBFF07000000EB0043
:1004F0000A003700606CE10004003A00005DEB0088
:100500008B05E900FDFF3E00040037006168E10053
:10051000010032000086EB000B00070019C7BA008B
:100520001905BA000E04E00003003A000A00E000DA
:10053000E0FF3A0000000600FE07B2009E018800BE
:100540008A047800F5FF3700395DBA008B05E900B1
:100550000C003200295DBA008B05E900080032006A
:100560000C00E00003003A00E284440032A0B40032
:10057000F5FF370019DDBA008B05E900FAFF3A00F4
:100580008904E800E184440032A0B40000000600C1
:10059000000000000000000000000000000000005B
:1005A000000000000000000000000000000000004B
:1005B000000000000000000000000000000000003B
:1005C000000000000000000000000000000000002B
:1005D000000000000000000000000000000000001B
:1005E000000000000000000000000000000000000B
:1005F00000000000000000000000000000000000FB
:1006000000000000000000000000000000000000EA
:1006100000000000000000000000000000000000DA
:1006200000000000000000000000000000000000CA
:1006300000000000000000000000000000000000BA
:100640000040DA000000FE000A00FA00E20F50004D
:1006500034003E00A0EA8000E10F500003003200A9
:10066000E20F500011003A000C0037000322200076
:100670000300E00001003A000040DA002002E2003E
:10068000020035002822EF0021E2A8002342AB003F
:100690000D003A002342A8000B003700032320007E
:1006A0000300E00001003A000040DA003002E200FE
:1006B000020035003822EF0031E2A8003342AB00DF
:1006C00001003A003342A800820178000B00370095
:1006D0003102FB00E10F500004003A002322AB007E
:1006E000FEFF3A0024118800030037003322AB00DC
:1006F000FEFF3A00A41188008301E9000300E00036
:10070000F3FF3A00E10F500003003A002302AB0070
:10071000FEFF32000B0037003302AB00FEFF320059
:100720000800370033002000B3BF9F00C0BF9F0008
:10073000D1BF9F00E2BF9F006A805700F909070000
:100740006FB99700020078000080FA0000000600F0
:10075000000005000001BE00240007000470A7008F
:1007600003F0A1006509B100160032000D0035004C
:100770006828E10006003500F0FF2F00F1FF270098
:100780000300E00013003B0001002800000005000A
:1007900000004000818048008502E900FCFF3A002B
:1007A00008003700F88F420002003C008000EB0098
:1007B000000005008100D1000080D3008502E80020
:1007C000FCFF3A000300E00002003B006000100064
:1007D000E0801800000006004F89DE0082017800EA
:1007E000940237006011B800A2023700C70ADE0089
:1007F000F107B200F50FB20008003200E1CF42006D
:10080000020032000170A00024000500810F70007A
:10081000010032000408050044000500810F70004B
:1008200002003A00140005008502E90000004000C3
:1008300081C04800FCFF3B000170A00024000500BF
:100840006022B800060220000000D0008180D200A3
:100850000482D2008582D2000000A0000202520071
:1008600083825A00030031000202420083824A0060
:100870000000A1000603E900F3FF3A0000000600B3
:10088000020AB900001BB9000200B8008100420052
:100890008100430000000600889FBE008A9FBE00C2
:1008A0008C9FBE001B0020000202BE00058668006F
:1008B00006002800060666004709DE00F20FB200B7
:1008C000820032000243E80080003200C729DE00C7
:1008D000F30FB2007D0032000343E8007B003200DA
:1008E000F107B2000170A000F507B2000570A0008A
:1008F000C708DD004903DE00868070004700DD0088
:10090000C72ADD004923DE00868272004722DD000F
:100910000305510004035000858358000300310093
:1009200000004000818048000A05E9008C1F780023
:100930008A9FBE00040050008580580004024200D7
:1009400085824A0000004000818048000005EB00DD
:100950000004BE006033B8000406BE000D48E1008C
:1009600056003100110009004DCCD8000C01B80030
:100970000D02B8008481410060824A0082835300E6
:1009800003045C0084845C0060055D000A00E000F4
:1009900025003A00800578000D40E1004900310053
:1009A0008800780007007800110009004D88D80001
:1009B0000C01B8000D02B8008481410060824A0039
:1009C0006003110083835B0004045C00E0845C002E
:1009D0000900E00021003A004F01BE000300E000E2
:1009E0002B003200E3016000070673008C81710068
:1009F00001003200640070004200DE004E5EDD0047
:100A00000C007000C258DE0001E0A0008301070066
:100A1000CF017800818071004F06BE004F05BE00F7
:100A20004F04BE00000006008C8343000D044C0000
:100A3000E0844C0060054D000000E9000A00E00081
:100A4000D4FF32008C8343000D044C00E0844C0042
:100A500060054D000000E900CEFF37000C034300A5
:100A60008D834B0060044C00E0844C000000E900E2
:100A70000900E000D8FF32000C0343008D834B00D7
:100A800060044C00E0844C000000E900D2FF370015
:100A90004200DE004E5EDD000C007000C258DE0039
:100AA00001E0A000CF0178000300E000DAFF32008F
:100AB00060001000E0801800D7FF3700F0FF2F0023
:100AC000AAFF3700F0FF2F00B9FF37000404BE0073
:100AD0002F010700870678000004FD008104FD0057
:100AE0002B010700078366000678A300030032008D
:100AF0000960A7000800BE002C0037000D78A30095
:100B0000020032000800BE00280037000778A3006A
:100B100026003A0001F0A10009F0A1000668A30038
:100B200003003200F1FF2700F0FF2F00BAFF37006B
:100B30000D68A300030032000800BE008C80700026
:100B4000B5FF37000768A30007003A000648A30076
:100B500003003200F1FF2700F0FF2F00AEFF370047
:100B60000D48A300030032006000B8008C807000C4
:100B7000A9FF37000748A3000400320001F827004E
:100B8000000020008C807000A3FF37007601070072
:100B90000004FD008104FD000205780072010700D9
:100BA0000802BE008A01780059FF37000160A000EA
:100BB000120220004241880097FF37000100E00048
:100BC000120032000500E00010003200889FBE00D5
:100BD0008A9FBE008C9FBE000006EB0001F8A300B8
:100BE0000300320060001000E08018000CF0A0004C
:100BF00005F8A3000300320060021200E0821A0030
:100C00000CF0A2008005EB0041FF37006000B80047
:100C10000200050003836800070028000703630043
:100C2000470ADE000480A100C71ADE000580A1008B
:100C3000F70F20000720E100420032000728E10002
:100C400040003200889FBE008A9FBE008C1F780043
:100C5000F107B200F307B2000400E00064003200C4
:100C60000170A0000500E000680032000370A000E1
:100C700085054200EB07B1000204B8000302B8008A
:100C80008484440060854A00020AB80084844400D9
:100C90000A854A00030AB800040545000400330031
:100CA0000804D0008984D2000A85D2008B05E900AF
:100CB0006158E1003D00350002102000090161008B
:100CC0000308200089816100F70720008783640002
:100CD00008867300C84CDE00C853DD0087847400AA
:100CE0004855DE000300E000060032008203760073
:100CF000040032008904E80060054D000A88A30062
:100D00000C003A00F70F20000758E10044003D00B6
:100D10000A70A100C75DDD000A8575008A007300B6
:100D2000090078004F0678004F05BE004F04BE0052
:100D3000000006000A05D1008984D3008B05E80075
:100D4000F0FF3700881F7800060478009000070045
:100D5000070278000001FD008101FD008C00070002
:100D600087027800850372000778A300050032002F
:100D70000001FD008101FD009F0007004F04780085
:100D800000000600850372000748A300030032003C
:100D9000F0FF2F00F1FF2700F8FF370000002000D0
:100DA00001F8270088807000F4FF37008801780080
:100DB0004848DD00808171004848DE00C850DD00F1
:100DC00001007000C850DE00060478000B017800B6
:100DD0001600070088807000D2FF37000500E00091
:100DE00005003200170020003A0007009DFF370081
:100DF00081037000F9FF3A00860078004F06780002
:100E00004F05BE004F04BE000000050083037100C3
:100E1000F9FF3200270020002E00070094FF370062
:100E200001F8270086807000F4FF37000100E00021
:100E300026003200610111007810E10023003C001F
:100E40006022B8007010E1000400350080027800D4
:100E5000010078008000EB00700151000200E0000A
:100E60000900340070031100062ADD00822ADE002A
:100E70008603DD00878272000200DE00860BDD0043
:100E8000070070008208DE0084817100F4FF2700F3
:100E90000482620084817100040028008482620060
:100EA0006102600005F0A6000000060004827100E7
:100EB000070032000000E800E08048000000060063
:100EC0000002BE006000B800EFFF37006000B8000D
:100ED00000000600889FBE000004EB006138E100BE
:100EE00016003A000100E00008003A00C800DE00E9
:100EF0004800DD00880020000100E00003003A0007
:100F0000C800DE004800DD00680444008184CF0092
:100F1000E9845400060034008908DD00F0831400E1
:100F20008703DE00878070000900DD0009044400AB
:100F3000610214004F04BE00000006000300E00040
:100F400008003A00C811DE004811DD0088002000CA
:100F50000300E00003003A00C811DE004811DD0084
:100F6000680444008384CF00E98454000600340000
:100F70008919DD00F08314008713DE00878171007A
:100F80000911DD0009044400E1021400E9FF370003
:100F90002700200001F0A70017002000470BDE000B
:100FA000F60FB200040032000643E8000A003200E7
:100FB0004702B3000000060001037800F607B20004
:100FC0000603700002003A000703B30000000600A9
:100FD0008702B3000000060001037800F607B200A4
:100FE00006037000020032000770A0000000060037
:100FF0000760A000000006000478A300040032008F
:101000000578A300030032000168A30001003A0044
:101010000200BE000160A000000006008101700017
:10102000270032008002EB0001F8A3000300320029
:1010300060001000E080180015002000F407200078
:101040000202420020003400F70320008703600002
:101050000604200000036300020820000001610074
:101060004700DE00C909DD0000807100C708DE000E
:101070000600E0000800320087037100060032001D
:101080001000B0000180B0000188A300020032000F
:10109000C108DE000402E800F107B200F30F2000EF
:1010A0000320E10003003D004722DD0081007200C3
:1010B0002900370001F827000000EB002600370068
:1010C0006000B80000000600680212007F20E10006
:1010D000020034006000B8001F0037006011B80043
:1010E0007020E100040035008001780001007800E4
:1010F0008000EB00700252000400E00009003400A0
:10110000F00312000719DD008419DE000703DD007B
:10111000868171000400DE00070BDD000600700010
:101120008408DE00F7FF27008383630087037100D4
:101130000600280003036300070032000700E000F8
:1011400003003A0061016000028173000200320076
:101150001000B0000180B0000500A60000000600ED
:1011600001F0A000000006004F0ADE004709DE0083
:10117000F107B200F20FB2000B003200F207B1002B
:101180000170A000C708DD00C901DE008380700087
:101190004700DD000400A60000000600600010000B
:1011A000E080180000000600810F700001003A0086
:1011B000000006008182CF000500E00010003E0024
:1011C0008082CF00EE8242007028E10004003900E6
:1011D00007003E00800078000000EB000E003700A2
:1011E000708312008600DE000500DD000A00370073
:1011F000708352008600DD000000EB00060037001F
:10120000E28252008508DD00708312000603DE00D2
:10121000868070000500DD007507B0000501EA005A
:101220000400A6000000060060001000E080180026
:1012300000000600881F7800030478000300E00027
:1012400007003D0060001000E080180060011900F8
:10125000E081190002003B0001F02D00030037007F
:101260000400070008F0A70001F0A0004F04780078
:1012700000000600889FBE008A9FBE0000827000AA
:101280000402710004827100260032000004BE00D6
:101290000200BE006011B8006B092000950220001A
:1012A0000182CF000A0039000541B1000082CF0061
:1012B000070039000541B1000982CF000400390060
:1012C0000541B1000882CF00010039000541B1009D
:1012D00005425200120032000A003B008281710078
:1012E000610164008100D1000080D3008984D300B3
:1012F0000884D3008B05E8000442E800F7FF3A00B9
:10130000070037000804440089844C0000004800AE
:10131000818048008B05E9000442E900F9FF3A00AA
:10132000030007004F05BE004F04BE00000006008A
:1013300081002000618055000B003D000B00200063
:1013400061FE2F000100E1001D0034008281710068
:10135000610164008904D1000884D3000000E80022
:10136000FAFF3A0071002000610064000300700081
:10137000020060000900320061044400E0844C0077
:101380000988A500050032008B05E8006808E10027
:1013900002003A008904D1000884D300F20F200033
:1013A0000258E10005003D00C75DDD00F907B2000D
:1013B0008980750008007800000006000BF82700FF
:1013C0008B007800000005000000FA0068815700DB
:1013D000CFB8970080E38000100078007B02070000
:1013E0000080FA00000006009F000700F7000700D9
:1013F0002B010700A7010700CF0107001B0307000F
:10140000C60237000000FA0068815700CFB8970085
:1014100080E38000100078006C0207000080FA0072
:101420000000060090000700E8000700990107008F
:10143000C10107001A0107000C030700B7023700BB
:101440000000FA0068815700CFB8970080E3800061
:10145000100078005D0207000080FA00000006001E
:101460000F0137000000FA00E88157004FB99700DC
:10147000640207000080FA00000006007A000700FE
:10148000D20007000601070082010700AA01070039
:10149000F6020700A10237000000FA006881570039
:1014A000CFB897007C0207000080FA000000060019
:1014B0006D000700C5000700760107009E010700C8
:1014C000F7000700E9020700940237000100370027
:1014D0000201E9000200E00005003200304278001D
:1014E000B1417800834F5200F9FF3200010037000C
:1014F000000005000480FB008381FB000300500016
:10150000000006008001780002003700B159780021
:101510000201E9000200E000FCFF3A0000000600C2
:1015200081E380009100780075050700110020001C
:101530000000E0000500350080E3800090007800A6
:10154000A00020001B060700CF00DE000100EA001B
:10155000000006000000060060C721000000060031
:10156000FDFF0700A0E3880090E38800000006006C
:10157000889FBE000004BE00080078000D00070030
:10158000000044008900780003000700080078008C
:101590004F04BE0000000600881F78000004780099
:1015A0000800780004060700080078004F0478005F
:1015B0000000060080007800040037003104E000DD
:1015C00002003A000000510000000600010178000E
:1015D0000108A300F9FF3A00810178003101780089
:1015E000F4EF2F00020242000281EA0002016200D1
:1015F0000408280004016100F7FF3200830078002E
:10160000010178003104E000FDFF3A0000005100C4
:10161000000006008001EB000200E0001000320034
:101620000002780001037800B44178000304E00070
:1016300008003200B14278000504E00005003200E5
:1016400082034000848F53000200320085CF510096
:10165000F4FF32008381FB001680FB008081510083
:101660000300780000000600EC874700889FBE005A
:101670008A9FBE008C9FBE008E1F780000067800F7
:10168000010478001807900028059000980678005B
:10169000CDB79F00B80590003202BE002203BE0005
:1016A0000400BE000601BE004F18DE006011B80045
:1016B0008000EB00D0B79F00E1B79F00F2B79F001A
:1016C00083BF9F00800478000900E000060032001C
:1016D0006000B8006011B800040250008582580014
:1016E00006035900878359000E00E0000200350010
:1016F0000D10A100CDB79F000900E00005003A00E1
:101700004FB097000028A30002003A000038A30061
:10171000020032008A00E900010037008A007800E8
:10172000F8815700A200200008007800860007001A
:101730000900E00003003A00CFB097000128A300A1
:10174000080032000000E90000814500B1C2B3008A
:101750000900E00001003200D1C2B3000149780065
:10176000050037000138A300030032000000E90043
:1017700001C2B30081757800480190000201E900C0
:1017800000015100808045004FB297008A01780027
:101790000C007800800207009C0090000188A300E4
:1017A0000400320098009000810F500001003D00BD
:1017B000010078004F0778004F06BE004F05BE00BD
:1017C0004F04BE00CF00B100000006000200FA0086
:1017D000889FBE008A9FBE008005780001047800C3
:1017E0000200780018019000280590009800780009
:1017F000B1BF9F00B80490000200E0000200350075
:101800000110A100B1BF9F00EA81570082002000B3
:101810008A0078003002BE002003BE000800780075
:10182000490007003FB99700F00061000300320053
:101830000000E90001C3B300817478003FB997004C
:10184000E8006100030032000000E90001C2B300BB
:1018500081747800480190000201E9000001510004
:10186000808044003FBA97008A0178000B0078001E
:10187000490207009B0090000188A3000400320089
:1018800098009000810F500001003D000100780099
:101890004F05BE004F04BE000080FA0000000600A5
:1018A000EA874700889FBE008A9FBE008E1F78008F
:1018B00000047800030078007287570084E2260055
:1018C00055C72600049FBE00C3962200030F780070
:1018D0006C875700004FEB0011059000A1049000A9
:1018E000910578000200E000020032000207780053
:1018F00001003700728757000000E00002003A0044
:101900000E0078002BFF07000A00E00003003500FE
:101910008A0F5000010036000A0078000B027800A0
:1019200089017800000178008E00780008007800B6
:10193000190207004F0778004F05BE004F04BE0094
:10194000AF00B10000000600F4874700889FBE008A
:101950008A9FBE008C9FBE008E1F78000605BE00C9
:101960000404BE0081BF9F0082B79F00F3B79F00B1
:10197000B0009000E1B79F001301780092B79F007C
:1019800090069000400090000000E90000067800FA
:101990000D00E00001003D001D0020008040EB0034
:1019A000EFB19700817178001E0020001F00370002
:1019B0000C06E9000FB09700CF80DE006109B90086
:1019C000A0B79F00B1B79F00C2B79F00D3B79F00D9
:1019D0000203BE000002BE000800BE000A01BE00F5
:1019E00011060700000778000E4078000043B000A1
:1019F000EFB0970080707E008D06E9000FB9970068
:101A00000201E90082BF9F002FB29700BFB297008A
:101A10004FB39700DFB397000800BE000A01BE0075
:101A2000FA0507000205BE000004BE000C00E0003D
:101A30000D003400E00F5400E08F5C00E00F5D000B
:101A4000E08F5D00DAFF3A000D00E000D8FF3C00B7
:101A50008FB997000300E000030034001FB0970027
:101A60000018A300D2FF3A000E00E00002003A0086
:101A7000FFB097001140A1000C0078004F077800DC
:101A80004F06BE004F05BE004F04BE004F01B1001F
:101A9000000006000200FA00889FBE008A9FBE0078
:101AA0000005780001047800020078001801900019
:101AB000A804900098007800B1BF9F00B80590007E
:101AC0000200E000020035000110A100B1BF9F003C
:101AD000EA815700A2002000890078003002BE0091
:101AE0002003BE000800780097FF0700480190001F
:101AF0000201E90000015100808045003FBA9700D3
:101B0000890178000A007800A30107009A0090007C
:101B10000188A3000400320098009000810F50005B
:101B200001003D00010078004F05BE004F04BE00DB
:101B30000080FA0000000600FA874700889FBE0078
:101B40008A9FBE008C9FBE008E1F780080047800A4
:101B500001047800820578001801900028059000A3
:101B600018077800B80090000200E000020035007D
:101B70000E10A10001003700120020007000670065
:101B8000E0B79F00090032003B02BE002B03BE00FD
:101B9000E00F5200E08F5A00E00F5B00E08F5B0027
:101BA000020032008A86E900010037008A067800C8
:101BB000E8026700F5B79F00010032008D06E900DA
:101BC0003B02BE002B03BE00E4AF9F00F5AF9F00B9
:101BD00086B79F0097B79F00480690000C06E90063
:101BE0000040EB0080707E00EFB297007FB297005C
:101BF0008903780081047800D8AF9F000204780040
:101C00008BBF9F008A057800034578002A003700C3
:101C10000C06E9006FAB97006F006300E90F5000FE
:101C200002003C000003B000010037007005B00066
:101C30000A03FB001604B100F90F53000C003E002C
:101C4000000378000650A0001606B100F90F5300FB
:101C500007003E00B4B79F00A5B79F00C7B79F001D
:101C600086040700CFB39700AFB297003FB297004A
:101C700080747E000804E9008D06E9006FA89700D3
:101C8000FFA897000FB197009FB197004600200072
:101C90008301D1000281D3008180D3000080D30072
:101CA0000603E900FAFF3A00E0AF9F00F1AF9F00A2
:101CB00082B79F0093B79F00E10F56000F003400DA
:101CC0006FA89700FFA897000FB197009FB19700EA
:101CD000E00F5000E08F5800E00F5900E08F5900EE
:101CE000CBFF3A000800E000C9FF3C000D00E00017
:101CF000020034000E18A300C5FF3A0089007800E6
:101D0000F4B79F00870478005FAC97008A417800A1
:101D10000B0578008FBD97000500E0001000320031
:101D20003B02BE002B03BE00E4AF9F00F5AF9F0057
:101D300086B79F0097B79F00E00F5200E08F5A00D0
:101D4000E00F5B00E08F5B00050032000C06E9004D
:101D500083707E000C06E90000C3B30080707E0033
:101D6000FFB297000500E000030032000C06E90016
:101D700000C2B30080707E00480190000201E900BB
:101D80000C0151008C8040000E0278008A0178001E
:101D90000900780000010700990090000188A30065
:101DA0000400320098009000810F500001003D00B7
:101DB000010078004F0778004F06BE004F05BE00B7
:101DC0004F04BE00AF01B100000006000200FA009F
:101DD000881F780000047800E2BF9F0064815700EC
:101DE00008007800AB020700980090000148A300AB
:101DF000010032000080EB004F0478000080FA0000
:101E000000000600F28747008E1F7800020278006B
:101E1000030178000000E0000200320000077800B3
:101E200001003700728757008002EB000100E000DC
:101E3000010032008102E9007080570006000900AD
:101E40000018EB000080EB0080BF9F0023102000F3
:101E500093BF9F00AEBF9F00B1BF9F00C5BF9F0053
:101E60000100E00003003D00B104200091EA880079
:101E700006003700004FEB00EEBF9F00DEBF9F0063
:101E80008400780070805700D0FF07004F0778006B
:101E90002F01B100000006008201780001017800E6
:101EA000F1FF2700D7FF3700889FBE0000047800AD
:101EB0004800900082047800808F540001003600B2
:101EC0008004780009017800580090008DFD07001B
:101ED000580090000900400050049800C80090008D
:101EE00089845000490498000048EB004F04BE006C
:101EF0000000060010007800D3F937009001900030
:101F00000388A30001003200E7FF37000348A30065
:101F100001003A00F7FF07000000060084082000D7
:101F2000848F50001D0032000D003C00140820007A
:101F3000848F50002700320002003C00040820007B
:101F40000400370024082000848F50003400320041
:101F500044082000848F500043003A0036003700C8
:101F6000040A2000848F50002700320004003C0047
:101F700004092000848F50003B003A0028003700FD
:101F8000020C2000828F50002F003200020F200030
:101F9000828F500034003A002B0037009380E90014
:101FA0000200E00005003200810978001102FB0008
:101FB000CFA2DE00612BB90028003700810978002C
:101FC000114278000482FB008002EB006033B8000D
:101FD0002200370013027800E40052000200E00003
:101FE00005003200810978001102BE004FABDE000F
:101FF0008603780019003700810978001102BE00BD
:102000006033B800150037009380E900810978003B
:1020100011027800CFA2DE00612BB9000F0037005B
:1020200093027800E8805200810978003102BE00F6
:102030002103BE00090037009380E9000200E000A0
:1020400002003200F1FF37009380E9008109780037
:10205000110278008002EB006033B8000498BE00E3
:102060000690BE0010000500000005004408200096
:10207000848F50002500320008003C001408200026
:10208000848F50001400320024082000848F5000F8
:1020900024003200040820000C003700040920004E
:1020A000848F50001F00320004003C008408200090
:1020B000848F500024003A000E003700040A2000EC
:1020C000848F500011003200040C2000848F5000D7
:1020D0001D003A000D0037009380E9008109780067
:1020E0009100780001087800CF91DE008288BE0060
:1020F000140037009380E90081097800910078008E
:1021000001087800824878000E0037009380E900CB
:102110008109780091007800010878008208780031
:10212000080037009380E900810978009100780069
:10213000010878006112B900612BB9008498BE00D3
:102140008690BE001000050000000500889FBE00BC
:10215000000478004800900082047800808F5400CA
:1021600001003600800478000901780058009000D2
:10217000E4FC07005800900009004000500498005B
:10218000C800900089845000490498000048EB0082
:102190004F04BE0000000600F2874700889FBE0083
:1021A0008A9FBE008C9FBE008E1F7800800478003E
:1021B0000105780002047800830578006107620059
:1021C00002003A008B0F5400080039000801780023
:1021D0008A0078000900780048FF07008B0F540040
:1021E00002003900880578001E0037000886550077
:1021F0000C017800F00F56000100360002012000AB
:10220000010220007E8057006F0207008C067800D4
:102210000500370002012000FE8057000900780009
:1022200036FF0700F0865600EF8F5600F9FF3E009C
:102230004461DE0000FF2F000091B900020146005A
:10224000FE805700090078002CFF07000E00E00018
:1022500004003A00080178008A007800090078003C
:1022600026FF07000B0078004F0778004F06BE00DE
:102270004F05BE004F04BE002F01B1000000060054
:1022800000000500000005000000050000017800C6
:102290000040EB008080FB008180400063D0210083
:1022A00063C278000404E00003003A0070D021000B
:1022B00060C078000000060092017800934F520041
:1022C00004003A0070D0210060C078000309E800E3
:1022D000010037000040E800EA4F5000EDFF3600F3
:1022E00000000600F6874700889FBE008A9FBE0058
:1022F0008C9FBE008E1F78000005780001047800D6
:1023000083057800040678000000EB00C0B79F004A
:102310008080EB00D1B79F00E0B79F00F2B79F002D
:102320000008200080BF9F0098007800010078001E
:102330008004EB00010037008904E8003041780098
:102340000204E0000300320053C2B300834F510087
:10235000F9FF3A000900E0000400320009017800AA
:102360000A007800E5FE0700188C44001807780082
:1023700050C2B3009E4F10003F013A000E07E80024
:102380000E0C780010003700CFB097000100A000BD
:102390000B003700CFB097000110A00008003700F5
:1023A000CFB097000120A00005003700CFB0970004
:1023B0000130A00002003700CFB097000140A0001C
:1023C000C1B79F00000CE80018007800904078002A
:1023D000B2C2B30082CF5000F1FF320007003C00D0
:1023E00002C2B30082CF5000F0FF320032C2B3000D
:1023F00082CF500007003A00EFFF3700D2C2B3008F
:1024000082CF5000E0FF320002C3B30082CF500001
:10241000E0FF3200A2C2B30082CF50000D003A00AC
:10242000000CE8001C80E900000E78001000780025
:10243000E0B79F000000E0000F003D00CFB0970024
:102440000100A200C1B79F000000EA00E0B79F00B2
:102450000900370084010700E0B79F000100370042
:10246000000CE800180078009000FB000103B100A8
:10247000E98F5000FAFF36004FB097000008A30024
:10248000020032000010A100C0B79F0018007800C1
:10249000E1C2B30090CF100016003A008000EB00BC
:1024A000D1B79F000000E800000C7800A1C2B30083
:1024B00090CF100006003A00000CE8001C80E900F4
:1024C000000E780010007800D0B79F000900370098
:1024D00065010700D0B79F0001003700000CE8003D
:1024E000180078009000FB000103B100E98F500054
:1024F000FAFF36000800780064FF07008046780085
:10250000180078001000FB0055020700910620001B
:10251000810F50003800320012003C0041062000BC
:10252000810F5000340032000A003C0011062000E8
:10253000810F50002000320031062000810F500032
:10254000A000320051022000810F5000BC003A0070
:10255000B400370071062000810F5000B8003C0025
:102560008800370001072000810F50005C00320016
:1025700007003C00E1062000810F50007A00320085
:10258000F1062000810F5000AD003A0039003700FD
:1025900051072000810F50002700320081072000E2
:1025A000810F50004200320031072000810F50009F
:1025B000A3003A008F0037008D80FB000C017800EB
:1025C00000FE2F000F004000370207000000E0006F
:1025D000A800320018007800000CE8009041780054
:1025E00002FE2F000F014100F88057000A0078001A
:1025F00024FF07000E0037008D80FB008C0178005F
:102600001200200000FE2F000F00400043FE0700D4
:102610000000E00097003200180CE80002FE2F00D6
:102620000F014100F88057000A0078000EFC0700F7
:1026300080844400900037008D80FB008C0178007E
:102640000001EB0000FE2F000F00400033FE0700EA
:102650000000E00087003200180CE80002FE2F00A6
:102660000F014100F88057000A00780009FD0700BB
:10267000EFFF37008D80FB008C0178000001EB003C
:1026800000FE2F000F00400024FE07000000E000C5
:1026900078003200180CE80002FE2F000F01410004
:1026A000F88057000A00780048FC0700E0FF370078
:1026B0008D80FB008C0178000001EB0000FE2F00F4
:1026C0000F00400015FE07000000E0006900320026
:1026D00018007800000CE800904178001C003700DA
:1026E0008C0178000001EB00010F200000FE2F009C
:1026F0000F00400009FE07000000E0005D0032000E
:10270000180CE8000FB097009FB097002FB197000A
:10271000BFB19700E00F5000E08F5800E00F590064
:10272000E08F590009003A00CFB597006FB49700C9
:10273000E0CF21009FFB07000B02780088017800A2
:1027400000017800E1CF21004700370083C7B300C4
:1027500002FE2F000F014100F88057000A007800A8
:10276000F5FC0700B2FF37000B8144008D80FB00B1
:102770008C01780000FE2F000F0040003BFE070098
:102780003C0037008D80FB000C01780000FE2F001C
:102790000F004000C40107000000E00035003200D7
:1027A00018007800000CE8009041780002FE2F002D
:1027B0000F014100F88057000A007800B1FE0700C1
:1027C0009BFF370000C8B30080CF560029003A00B5
:1027D000180CE8001C80E900000E7800104078001A
:1027E000E0DF9F0013002000E2FD2F000F014100F9
:1027F0000800370000C8B30080CF56001D003A0023
:10280000180CE8001C80E900000E78008001EB0045
:1028100010017800F88057000A00780020FC0700BB
:1028200083FF370000C8B30080CF560011003A0084
:10283000180CE8004FB29700EFB19700080037007E
:102840000E0C78000000EB00C0B79F00E0B79F00BF
:102850000080EB00D0B79F000002EB0084017800FD
:102860001200200041D021000A0078004AFE070033
:102870006FFF3700180CE800090078004F07780058
:102880004F06BE004F05BE004F04BE006F01B100F1
:10289000000006008200FA00889FBE008A1F7800B0
:1028A0000005780082047800C13F9F000004EB001F
:1028B000100037000902780088017800A2F72F0085
:1028C0000F01410081F72F008F8040000A0078003F
:1028D00084FE070008004000880F500004003D00FF
:1028E000B004200090EA88000084EB000400370068
:1028F000000478004F3897001004E000EDFF3A0024
:10290000080078004F0578004F04BE000080FA00F0
:1029100000000600889FBE000004BE000000EB001F
:102920000800E00018003200180090000058A300D2
:102930000D003200D800900068009000808F500099
:1029400009003600B80990000001EB008200780011
:102950000800780003000100D80090000080EB0020
:102960000100E000080032000000EB00200C98009D
:1029700060049800500498000900E0000200320052
:1029800018007800FA0507004F04BE00000006009A
:10299000889FBE000004BE000000EB000800E000BD
:1029A00025003200180090000058A30011003200EA
:1029B000D800900068009000808F50000900360019
:1029C000B80990000001EB00820078000800780050
:1029D00003000100D80090000080EB000100E0003F
:1029E000150032000000EB00200C980060049800F5
:1029F00050049800780A900008109000800F520050
:102A0000060031000002520011002000CFA2DE00BB
:102A1000612BB90018007800650007000000EB008A
:102A200000149800700C98000900E00002003200C9
:102A300018007800CE0507004F04BE000000060015
:102A4000800078001000200002022000828F5000D9
:102A500004003200E9805000E48F5000010036008D
:102A60000000EB0000000600889FBE008A1F78006F
:102A7000000578000A047800984478000805E8000A
:102A80000900FB00EEFF07000000E000F9FF3A003C
:102A9000B0C2B30080CF540005003200D0C2B300F2
:102AA0008000EB0080CF540005003A0002003700A0
:102AB0008000EB0001003700110020000804E8004E
:102AC0000000EB00030037006A02B9000200520068
:102AD0000003B0003801FB0003FD2F00828141009C
:102AE000E98F5100F8FF36000100E00001003A00D4
:102AF0000000EA004F0578004F04BE000000060009
:102B0000889FBE008A1F7800800478000105780045
:102B100009007800A7FA0700000478008A0178000D
:102B20000801780011002000090078000A00070061
:102B3000800078000080EB00888F500001003A0090
:102B40000000EB004F0578004F04BE0000000600B7
:102B500010007800BCF63700889FBE008A9FBE0038
:102B6000810478000204780009C5B9000900E0007A
:102B700001003A000004EB000A01780080007800B0
:102B800003007800DBFC0700800078008A8F50008B
:102B900003003200110009008980D8000004780089
:102BA000080078004F05BE004F04BE00000006007C
:102BB000A0FD2F00F1FF2F009F0007004F89DE00CE
:102BC0008201780000000600889FBE008A9FBE0038
:102BD000800478000200E0005B00320001407800D1
:102BE000814C780082814400F1F99F00E20F51008E
:102BF0005500360091449800A1449800E1F99F00E7
:102C0000D1F99F00E60F51004F003600B144980003
:102C1000C1F99F00E80F51004B0036000905EA009A
:102C2000630565000A8444000A055100C1FF2F00B6
:102C3000010565000080FB008000EB001210200001
:102C4000131020000EF70700008CBE000A0144009C
:102C500060B99F0071B99F00E80F55003A00360037
:102C60002004980031049800400498005104980012
:102C700020B99F0031B99F0040B99F0051B99F0012
:102C8000F80F550030003600600498007104980079
:102C9000000C9800110C9800200C9800310C980042
:102CA000400C9800510C980020B19F0031B19F005A
:102CB00040B19F0051B19F0060B19F0071B19F0072
:102CC00000B99F0011B99F006401640078014100C0
:102CD00002044400020555006011B8000203BE0062
:102CE0000002BE000403BE006022B80000007200B3
:102CF000818072000201730083817300100037002D
:102D0000009CBE000294BE0040049800510498004C
:102D10006204980073049800000C9800110C98004D
:102D2000220C9800330C9800400C9800510C98002D
:102D3000620C9800730C98000A02B1000802B000FF
:102D4000FF0F5500EEFF3E00090078004F05BE0062
:102D50004F04BE00000006000200FA008101780066
:102D6000E0FF9F00930090000188A300050032005F
:102D7000D3009000805878000080FB00D1019800BB
:102D80000A003700120020008F80E900030078005D
:102D900058FC0700800078000080EB000100E00094
:102DA00002003200EFF897000180FB000080FA007B
:102DB00000000600E8FF370001017800800178007C
:102DC000008268000408A3000500320013003700E9
:102DD00032407800805978000004E000140032008E
:102DE000030278000208A300F9FF3A00030078000C
:102DF000010037000318780082007800B2017800E3
:102E0000F5EF2F00838242000382EA000482620011
:102E10000508280005026200F6FF32000002780073
:102E200031417800025878000204E000FBFF3A00CC
:102E3000040078000000060002002F00F3FF2F00BE
:102E4000820F5000838F5800040036000000EA0013
:102E500090EA88000080EB008080EB000000060014
:102E6000F1FB2F0080804000F98F500001003E00F0
:102E70000050A00000000600F9FF3700F1F92F0014
:102E800080804000F98F500001003E00F005B20044
:102E900000000600F9FF370000000600B0F9070047
:102EA000FDFF0700FCFF3700881F78000004780052
:102EB00000082000808F5000170035001008200007
:102EC000808F50000B00340030082000808F5000AD
:102ED00011003A00920078006880500000097800E4
:102EE0003002BE002003BE00049CBE000694BE005B
:102EF00007003700920278006480520000097800D1
:102F00001000BE0009000700009CBE000294BE0035
:102F100010002000010037000000EB004F04780093
:102F20000000060000C0DA000000060081037800FF
:102F30002EF607000001BE006000B8000478A30070
:102F400013003A006220E10015003E000D00390038
:102F50008301D1000281D3008180D3008301D1009D
:102F60000281D3008180D3008301D1000281D3008C
:102F70008180D3000538B000C42ADD00F300B20020
:102F80008381720007F0A70003F0A0000000060094
:102F900083FF2700020020006110B900F9FF37000D
:102FA00003FF2700F7FF3700889FBE008A9FBE00FF
:102FB00030044200B0844A0030054B0090854B003D
:102FC0006000B1000898BE000A90BE000440E10015
:102FD00005C8E10006D0E10007D8E1000200310099
:102FE000680040001008E8004F05BE004F04BE0016
:102FF00000000600889FBE008A9FBE003004BE000D
:103000002005BE000418540005985C0006185D00F9
:1030100007985D00110020000440E10005C8E100B0
:1030200006D0E10007D8E100010039008000EB0084
:10303000108810004F05BE004F04BE0000000600BF
:103040001200FA00889FBE008A9FBE008C9FBE00BF
:10305000E0B79F00F1B79F0082BF9F0093BF9F0022
:103060000605BE000404BE000000EB00D0B79F00C0
:10307000C0B79F00B0B79F00A0B79F0090B79F0058
:10308000000678005FB19700CFB097008201410041
:103090003FB097000200E00004003D003700070049
:1030A0007E805700C0FF0700030037003300070091
:1030B0007E805700CFFF0700DFB697000D00E000CD
:1030C0000C0035006FB29700FFB297000FBB97005E
:1030D0009FBB970010002000010020006011B80085
:1030E0000002720081827200020373008383730006
:1030F0001B0007000C06E80001042000810F5600A9
:10310000E0FF3A000D00E00004003D000802BE00B0
:103110000A03BE007E805700A3FF07005FA8970048
:103120000000E00005003A001FB29700AFB2970020
:103130003FB39700CFB39700090007006FB0970027
:10314000FFB097000FB997009FB997004F06BE00D8
:103150004F05BE004F04BE000080FA0000000600CC
:103160000100070000000600A4B79F00B5B79F004C
:10317000C6B79F00D7B79F00000006004F09DE00CA
:1031800082817100B3B79F004F01DE008180400053
:1031900082807000A1B79F008FB097004F09DE00BA
:1031A000000040000200700090B79F007FA89700C9
:1031B0004F01DE00818040008280700081B79F0057
:1031C0000D0007004F3ADE000000400004007000D0
:1031D000F0AF9F00080007000402420085824A0009
:1031E00006034B0087834B00DFFF07000802BE0089
:1031F0000A03BE00000006002FB29700BFB297007E
:103200004FB39700DFB3970000000600881F7800D7
:1032100018002000881F780089FF07008F87E900C9
:103220004F04780000000600801FEB0084FF0700B9
:103230008F87E90000000600889FBE008A9FBE00BD
:10324000E00F5000E08F5800E00F5900E08F590068
:103250000C003D006044B8006055B8000000540008
:1032600081805C0002015D0083815D001800200008
:103270001500070008003D00180007000004EB00DF
:10328000050037000004EB000F00070002003D00BE
:103290001200070018002000DCFF07000800E00013
:1032A000060032006022B8006033B800000052000F
:1032B00081805A0002015B0083815B004F05BE00E4
:1032C0004F04BE0000000600E00F5200E08F5A00DD
:1032D000E00F5B00E08F5B00000006006044B80078
:1032E0006055B8000402540085825C0006035D004E
:1032F00087835D0000000600889FBE008A9FBE0095
:103300008C1F7800E00F5000E08F5800E00F59004C
:10331000E08F59000D003D006044B8006055B800D2
:103320000000540081805C0002015D0083815D002B
:103330001C0020000820E10009A8E1000AB0E1001B
:103340000BB8E1000D003D00080037000006EB005F
:10335000E00F5200E08F5A00E00F5B00E08F5B004F
:1033600006003D006044B8006055B80004025400F7
:1033700085825C0006035D0087835D00AAFF07006D
:103380000C00E000060032006022B8006033B80094
:103390000000520081805A0002015B0083815B00C3
:1033A0004F0678004F05BE004F04BE000000060027
:1033B0000D0A0000252E00002A7300000D0A0000EF
:1033C000000D00000A2500002E2A000073250000D1
:1033D000730D00000A0000006D65000073730000AB
:1033E0006167000065200000300000006D6500008E
:1033F0007373000061670000652000003100000069
:103400007B220000746500006D7000006572000092
:103410006174000075720000612200003A20000013
:10342000256400007D0000002F7300007973000008
:10343000746500006D5F0000796F00007572000018
:103440005F6D00006F6E0000697400006F72000015
:10345000696E0000672F0000743A0000007B0000D6
:103460002270000072650000737300007572000026
:10347000652200003A200000256400007D00000065
:103480002F73000079730000746500006D5F000009
:10349000796F0000757200005F6D00006F6E0000B4
:1034A000697400006F720000696E0000672F0000F1
:1034B000703A0000007B000022680000756D00007B
:1034C0006964000069740000792200003A2000005D
:1034D000256400007D0000002F7300007973000058
:1034E000746500006D5F0000796F00007572000068
:1034F0005F6D00006F6E0000697400006F72000065
:10350000696E0000672F000069000000537500001D
:10351000627300006372000069620000656400006D
:10352000205300007563000065730000733A0000CB
:103530000073000079730000746500006D5F000087
:10354000796F0000757200005F6D00006F6E000003
:10355000697400006F720000696E0000672F000040
:103560006900000053750000627300006372000080
:10357000696200006564000020450000727200006E
:103580006F7200003A000000256400003A4300001A
:103590006F6E00006E6500006374000065640000DB
:1035A0000D0A000000470000455400002000000004
:1035B0002F74000065730000740000003C68000078
:1035C0003320000073740000796C0000653D00003A
:1035D0002274000065780000742D0000616C00000A
:1035E000696700006E3A0000636500006E740000B9
:1035F000657200003B2200003E200000537900006D
:1036000073740000656D0000202000004B34000042
:10361000365F000057450000422000003C68000073
:10362000333E0000003C0000687200002063000090
:103630006F6C00006F7200003D230000303000000E
:1036400030300000383000003E0D00000A0000005D
:103650003C6800003320000073740000796C0000A7
:10366000653D00002274000065780000742D0000A4
:10367000616C0000696700006E3A0000636500003D
:103680006E740000657200003B2200003E200000C6
:10369000546500006D7000003A20000000430000F7
:1036A0003C680000333E00000D0A0000003C0000B2
:1036B0006833000020730000747900006C6500001E
:1036C0003D22000074650000787400002D61000048
:1036D0006C690000676E00003A630000656E0000D0
:1036E00074650000723B0000223E00002050000084
:1036F000726500006173000075720000653A000099
:10370000200000006D6D0000486700003C6800006C
:10371000333E00000D0A0000003C0000683300004A
:1037200020730000747900006C6500003D220000E9
:1037300074650000787400002D6100006C69000061
:10374000676E00003A630000656E0000746500005B
:10375000723B0000223E000020480000756D000012
:103760006964000069740000793A000020000000DC
:10377000253C0000683300003E0D00000A000000F8
:10378000256400003A4300006C6F00007365000080
:1037900057610000697400000D0A00000025000058
:1037A000643A0000436C00006F7300006564000021
:1037B0000D0A000000250000643A00004C6900007A
:1037C00073740000656E00002C200000706F000014
:1037D00072740000205B0000256400005D0D000095
:1037E0000A000000256400003A4C0000425400002A
:1037F0005374000061720000740D00000A000000A4
:10380000256400003A4F0000706500006E650000FE
:10381000640D00000A0000005445000053540000ED
:103820005F5000004D5000005F4D00004F4400000D
:10383000452000003136000030320000004E00000C
:1038400045570000204C0000494200005F50000036
:103850004D5000000025000064000000542D0000C1
:103860003E000000482D00003E000000502D0000EA
:103870003E000000206D00006D4800006700000061
:1038800073740000646F0000757400002D730000F5
:1038900075620000736300007269000062650000D9
:1038A000720000000A000000796F000075720000CD
:1038B0005F64000061740000615F000075730000C8
:1038C00065720000007900006F750000725F0000F3
:1038D00064610000746100005F70000061730000AB
:1038E0007300000048540000545000002F310000C5
:1038F0002E3000002032000030300000204F000049
:103900004B0D00000A4300006F6E0000746500005C
:103910006E7400002D54000079700000653A0000BC
:103920002074000065780000742F000068740000A7
:103930006D6C00003B2000006368000061720000B5
:1039400073650000743D0000776900006E6400003C
:103950006F770000732D0000313200003531000018
:103960000D0A0000536500007276000065720000C9
:103970003A2000006B340000365F00005032000037
:10398000340D00000A0D00000A0000004854000039
:10399000545000002F3100002E3000002034000071
:1039A00030340000204E00006F74000020460000FC
:1039B0006F7500006E6400000D0A0000436F000088
:1039C0006E740000656E0000742D000054790000D4
:1039D000706500003A2000007465000078740000F3
:1039E0002F680000746D00006C3B00005365000000
:1039F00072760000657200003A2000006B3400000F
:103A0000365F000050320000340D00000A0D000047
:103A10000A3C000070720000653E0000506100002A
:103A200067650000206E00006F74000020660000D3
:103A30006F7500006E6400000D0A00000D0A0000A2
:103A4000000000004D510000544300000000000041
:103A50000400000000000000000000000000000062
:103A60003C000000010000004D51000054570000D0
:103A70000000000000000000000000000000000046
:103A80000000000000000000000000000000000036
:103A90000000000000000000000000000000000026
:103AA0000000000000000000434F00004E4E0000E8
:103AB00045430000542000004D51000054540000C4
:103AC0002076000065720000736900006F6E0000D0
:103AD00020250000642C0000206300006C690000B9
:103AE000656E00007420000069640000202500005D
:103AF0002E2A0000732C0000206300006C6500007B
:103B0000616E00002073000065730000736900009F
:103B10006F6E000020250000642C0000206B000068
:103B20006565000070200000616C0000697600008F
:103B30006520000025640000002C000020770000B4
:103B4000696C00006C200000516F000053200000E1
:103B5000256400002C200000776900006C6C0000D8
:103B60002072000065740000616900006E20000092
:103B7000256400002C200000776900006C6C0000B8
:103B8000207400006F7000006963000020250000B1
:103B90002E2A0000732C000020770000696C0000C2
:103BA0006C2000006D650000737300006167000009
:103BB00065200000252E00002A730000002C000064
:103BC0002075000073650000722000006E61000027
:103BD0006D650000202500002E2A00007300000003
:103BE0002C2000007061000073730000776F0000EC
:103BF00072640000202500002E2A000073000000DF
:103C0000434F00004E4E0000414300004B20000097
:103C10007365000073730000696F00006E20000080
:103C20007072000065730000656E00007420000073
:103C3000256400002C200000726300002025000095
:103C40006400000050550000424C00004953000041
:103C5000482000006475000070200000256400000A
:103C60002C200000516F000053200000256400004C
:103C70002C2000007265000074610000696E000075
:103C80006564000020250000642C00002070000006
:103C9000616300006B65000074200000696400002F
:103CA00020250000642C0000207400006F700000CC
:103CB00069630000202500002E2A0000732C0000FC
:103CC00020700000617900006C6F000061640000EA
:103CD000206C0000656E0000677400006820000022
:103CE000256400002C20000070610000796C000049
:103CF0006F61000064200000252E00002A73000080
:103D000000250000732C000020700000616300009B
:103D10006B6500007420000069640000202500002D
:103D2000640000002C20000064750000702000007A
:103D3000256400000053000055420000534300007A
:103D400052490000424500002064000075700000E8
:103D500020250000642C000020700000616300003A
:103D60006B650000742000006964000020250000DD
:103D700064200000636F0000756E00007420000076
:103D800025640000207400006F700000696300006B
:103D9000202500002E2A000073200000716F000013
:103DA000732000002564000000530000554200000D
:103DB000414300004B20000070610000636B000075
:103DC0006574000020690000642000002564000084
:103DD000206300006F7500006E7400002025000055
:103DE0006420000067720000616E000074650000CE
:103DF00064200000716F0000732000002564000043
:103E0000005500004E53000055420000534300008F
:103E10005249000042450000206400007570000017
:103E200020250000642C0000207000006163000069
:103E30006B6500007420000069640000202500000C
:103E400064200000636F0000756E000074200000A5
:103E500025640000207400006F700000696300009A
:103E6000202500002E2A00007300000025730000AA
:103E70000052000045530000455200005645000026
:103E800044000000434F00004E4E00004543000038
:103E900054000000434F00004E4E0000414300001C
:103EA0004B00000050550000424C000049530000F8
:103EB000480000005055000042410000434B000004
:103EC0000050000055420000524500004300000031
:103ED0005055000042520000454C000000500000C8
:103EE00055420000434F00004D50000000530000B9
:103EF0005542000053430000524900004245000073
:103F00000053000055420000414300004B000000F8
:103F1000554E00005355000042530000435200002C
:103F20004942000045000000554E00005355000076
:103F300042410000434B000000500000494E000089
:103F4000475200004551000000500000494E00005B
:103F50004752000045530000500000004449000053
:103F6000534300004F4E00004E45000043540000F4
:103F7000000000000D0A00002D2D00002D2D000076
:103F80002D2D0000736F0000636B0000657400004E
:103F900020690000732000006E6F00002E200000DA
:103FA00025640000206F0000706500006E65000051
:103FB00064200000737500006363000065730000F7
:103FC000732D00002D2D00002D2D00002D0D000063
:103FD0000A0000000D0A00002D2D00002D2D00000C
:103FE0002D2D00002D2D0000736F0000636B00006D
:103FF0006574000020690000732000006E6F0000EF
:10400000742000006F700000656E000065640000A1
:104010002D2D00002D2D00002D2D00002D2D000038
:104020000D0000000D0A00002D2D00002D2D0000B8
:104030004F700000656E0000204D000051540000DC
:1040400054200000427200006F6B00006572000097
:10405000206300006F6E00006E6500006374000056
:104060002053000075630000636500007373000057
:10407000202D00002D2D00002D0D0000000D000052
:10408000000D00000A2D00002D2D00002D2D000038
:104090004F700000656E0000204D0000515400007C
:1040A00054200000427200006F6B00006572000037
:1040B000206300006F6E00006E65000063740000F6
:1040C00020450000727200006F7200002D2D00006C
:1040D0002D2D00002D0D0000000000004D510000AE
:1040E0005443000000000000040000000000000035
:1040F00000000000000000003C0000000100000083
:104100004D51000054570000000000000000000066
:10411000000000000000000000000000000000009F
:10412000000000000000000000000000000000008F
:10413000000000000000000000000000000000007F
:104140004D51000054540000004D00005149000042
:1041500073640000700000004D51000049730000BE
:1041600064700000004D0000515400005400000035
:10417000889FBE008A9FBE000044780000C0EB000C
:10418000E84F540025003E000884FB00C544DD00D4
:10419000E88444000A10200009054500CFD5DE0060
:1041A00002C1B3000A00BE00BC0D07000A00BE0039
:1041B000770D07000004E000FCFF3A00002020001B
:1041C00009004000CF80DE00F2C1B300B30D07004C
:1041D000100020000800DD000080EA001A28B60068
:1041E0001C28B60008004400E1D3210000804000F4
:1041F0000008EB0060D321008000EB0001707C0020
:104200000030200009004000CF80DE00600D070074
:104210000004E000FAFF3A0010C0B3004F05BE00F2
:104220004F04BE0000000600E6874700889FBE00DE
:104230008A9FBE008C9FBE008E1F7800804578004C
:1042400001447800820478000345780000C0EB0048
:10425000E8CF550069003E00E24F540010003200E4
:10426000E44F54000E003200B0CFB300E14F5400D1
:1042700062003A00430020007281570000F02000E5
:1042800001002000C50D0700D0CFB3007FB197001B
:104290008FB99700E00F5100E08F590057003200AE
:1042A0008A86FB00A0CFB3000D28A30053003A007C
:1042B0000A04E00012003200E14F54000300320013
:1042C000E24F54000E003A00040037008D007800E1
:1042D0001102B2000A003A00480037000D58A3004E
:1042E000020032000A04E00044003D000D48A30033
:1042F00003003200A0CFB3000A04E0003F003D00FD
:104300000B4078009AFF07000B86FB004567DD0035
:104310006807470002CFB3000245650008417500F9
:104320006170B9005D0D07000900E00007003A0068
:10433000194180000900E80010418800F00F40009A
:1043400002003A0000002C00104188004849DE00BD
:104350000040200000004700CF80DE004F0D070026
:104360000050200000004700CF80DE0009417800A7
:104370004A0D0700081020000E044400CFC4DE00E0
:1043800012C0B3000800BE00440D07000800BE00C4
:10439000FF0C07000004E000FCFF3A0010002000C2
:1043A0000C00DD000080EA00E18666008C6EDD0016
:1043B000D2408000800061008D807000D140880074
:1043C0001C28B6000C004600E1D32100008040000C
:1043D0000008EB0060D321008000EB0001707E003C
:1043E000003020000E004000CF80DE00E80C070007
:1043F0000004E000FAFF32000B4078004F0778001D
:104400004F06BE004F05BE004F04BE006F00B10056
:1044100000000600881F78008A9FBE008C9FBE00A7
:104420000044780000C0EB00E84F540029003E0033
:104430000885FB004555DD00680545006150B90061
:10444000D30C0700EF006000B0CFB300E18F500045
:1044500020003A000C3020000A064600CFE6DE00BD
:104460000C00BE00CA0C070080407800D0CFB3001B
:10447000F3CF500017003A000A10B000CFD5DE008D
:1044800022C0B3000A00BE00040D07000A00BE00EF
:10449000BF0C07000004E000FCFF3A0008003700F2
:1044A0000A00BE00BA0C07000004E00004003A0055
:1044B000084078002EFF0700C0CFB300050037008A
:1044C0000C00BE00B20C0700F44F5000F4FF3A009D
:1044D00010C0B3004F06BE004F05BE004F04780069
:1044E000000006000400FA00889FBE008A9FBE00FC
:1044F0008C9FBE00810478000206780080C0EB002B
:10450000E84F500073003E008086FB00456CDD00E4
:10451000680444006140B9009D0C07006F00600012
:10452000B1CFB300E10F50006A003A000A3020001A
:1045300008054500CFD5DE000A00BE00940C070038
:10454000D1CFB300F34F500062003A001981FB0055
:104550008001EB004818DD00C810DE00810070000B
:104560004810DD00194190000281FB008001EB0042
:1045700002014000838148004818DD00C810DE00B9
:10458000810070004810DD00294290000482FB0089
:104590008002EB000002420081824A003941900013
:1045A0000281FB008001EB0061015100E0815900B4
:1045B0004828DD00C820DE00810070004820DD00B2
:1045C000020140008381480041CFB300E30F410066
:1045D000E08F49003F003E0051CFB3000C00E000E7
:1045E0003C00320000C0200000004400CF80DE000C
:1045F0004300200009017800350D07004861DE0006
:104600000000210000004400CF80DE00A30C070062
:104610000010210000004400CF80DE000C41780033
:104620009E0C070000102000080040006101B90046
:1046300082BF9F0093BF9F0042C0B3000FB8970096
:104640009FB89700950C07000FB897009FB8970088
:104650004F0C07000004E000FBFF3A0010002000B0
:104660008D06DD00D34080008D8661008040EB0028
:1046700011003200170037000C2020000806460009
:10468000CFE6DE000C00BE00410C07000038A3009E
:104690000500320082C0B3000C00BE007F0C070092
:1046A00031CFB3000B0037000A00BE00380C070002
:1046B0000004E000060032000A00BE00340C0700CF
:1046C000F74F5000ECFF3A0011C0B3000100370073
:1046D000C1CFB300014078004F06BE004F05BE00B9
:1046E0004F04BE000080FA0000000600889FBE0054
:1046F0008A1F78008C9FBE008044780000C0EB00C9
:10470000E8CF54002D003E000985FB004554DD0034
:10471000680444006140B9001D0C0700EF00600010
:10472000B0CFB300E18F500024003A000C102000FD
:1047300008064600CFE6DE0082C0B3000C00BE00D3
:10474000560C07000C00BE00110C07000004E0002E
:10475000FCFF3A00100020000A05DD000A80EA0094
:104760001C28B600D04080000A0560000040EB0025
:104770000B0032001100370000202000080040002C
:10478000CF80DE00020C07000038A30004003200D6
:104790000940780076FE070030CFB30007003700ED
:1047A0000030200008004000CF80DE00F80B07003A
:1047B0000004E000F0FF3A0010C0B3004F06BE0056
:1047C0004F0578004F04BE00000006000800FA0004
:1047D000889FBE008A9FBE008C9FBE0080447800E8
:1047E00081067800020678000080EB008080EB00F4
:1047F000E8CF54006C003E000984FB004545DD0015
:10480000680545006150B900E10B07006F016000C9
:10481000B0FF2F00F1FF2F00E10F510062003A00BE
:1048200020FF2F00F1FF2F000C00E0005E0032009F
:10483000003020000A0040006101B900E2B79F008B
:10484000F3B79F000200BE00D10B070000417800C3
:10485000F74F51000400320090FF2F00F1FF2F00AE
:10486000FC4F510050003A001B002000885DDD0025
:10487000E34080000B8061001A0032000420200019
:104880000A024200CFA2DE000400BE0084BF9F00E7
:1048900095BF9F00BE0B07007F0160000FBA970015
:1048A0009FBA97000248A3000600320002C1B3007D
:1048B0000400BE00F90B07000B80EA001C28B600BC
:1048C000080037006000B8000238A300360032004C
:1048D0000940780026FE070030FF2F00F1FF2F006F
:1048E0003100370000F0210000004500CF80DE00DD
:1048F000A70B07004A04DD008C0F540001003600AE
:104900000C04780009407800BA0C07000006780013
:104910006FB09700FFB097009D0B0700F74F500056
:1049200007003200FC4F50000500320009407800BB
:104930000FFE070090FF2F00F1FF2F001A00370035
:10494000D14080000B806000040032006000B8009D
:104950008C0F540003003600130037008C0F5400F6
:10496000E8FF3E00080178008D00780009407800DB
:10497000EA0C07000C1020000A064600CFE6DE0015
:1049800002C2B3000C00BE00C40B07000C00BE0046
:104990007F0B07000004E000FCFF3A000B007800EA
:1049A0001C28B7006140B8004F06BE004F05BE008E
:1049B0004F04BE000080FA0000000600E4874700B4
:1049C000889FBE008A9FBE008C9FBE008E1F78000D
:1049D0000044780081057800820678000080EB00B2
:1049E0008080EB00E84F540051003E000886FB0039
:1049F000C564DD00E88444006148B900640B070029
:104A00006F076000B0FF2F00F1FF2F00E10F57008C
:104A100047003A0020FF2F00F1FF2F000D00E000BB
:104A20004300320000E0210000804400CF80DE001F
:104A3000570B0700004578000C77DD000840780030
:104A4000910C0700000678000030200009004000AB
:104A5000CF80DE004E0B0700F74F500015003200EC
:104A6000FC4F50000E003A000C00E0001A003A0023
:104A7000084078005F0C07000001780000F021007A
:104A800000804400CF80DE0082BF9F00400B070003
:104A90004A00DD000FB99700800F510005003A0071
:104AA00008407800B2FD070090FF2F00F1FF2F00B3
:104AB0001F003700D14080000E80600004003200EB
:104AC0006000B8000C00E00003003A001800370056
:104AD0000C00E000D9FF32004A55DD008D0F550073
:104AE000010036000D0578008C0F550001003600DE
:104AF0000C0578000A0178008B00780008407800E7
:104B0000BD0C07000810200009044400CFC4DE00DB
:104B100002C4B3000800BE00600B07000800BE001E
:104B20001B0B07000004E000FCFF3A006150B800D6
:104B30004F0778004F06BE004F05BE004F04BE0071
:104B40004F00B10000000600E6874700889FBE00C6
:104B50008A9FBE008C9FBE008E1F780000447800A4
:104B60000107780082047800830578000406780045
:104B70000080EB008080EB00E84F540097003E007F
:104B80008886FB00456DDD00680545006150B90071
:104B9000FF0A07006F006000E20F500002003200C1
:104BA000E40F500088003A0020FF2F00F1FF2F0093
:104BB0000900E000890032001B81FB008001EB004E
:104BC0004818DD00C810DE00810070004810DD00CC
:104BD0001B4190000281FB008001EB0002014000BC
:104BE000838148004818DD00C810DE008100700095
:104BF0004810DD002B4190000281FB008001EB009A
:104C000000014100818149004818DD00C810DE0024
:104C1000810070004810DD003B4190000281FB00E4
:104C20008001EB00000141008181490040FF2F001D
:104C3000F1FF2F00E00F5100E08F590067003200B4
:104C400050FF2F00F1FF2F000C00E0006300320046
:104C5000003020000A0040006101B900F2B79F0057
:104C600083BF9F000200BE00C90A07000041780010
:104C700020C4B300804F51000500320090FF2F0088
:104C8000F1FF2F0023C2B300834F510053003A00BD
:104C900000C0200000004500CF80DE00430020005F
:104CA0000B0178008A0B07004861DE00000021003C
:104CB00000004500CF80DE00F80A07000010210048
:104CC00000004500CF80DE000C417800F30A0700A9
:104CD00000F0210000004500CF80DE00AC0A070094
:104CE000CA05DD00898F550001003600890578006E
:104CF000100020008D06DD0008407800BD0B070085
:104D0000800478007FB097008FB89700A00A070052
:104D10000004E0002F003200D34080000D806100CD
:104D2000040032006000B800898F5500030036008F
:104D30002A003700898F5500EFFF3E000B017800F5
:104D40008E00780008407800F40B0700081020005F
:104D50000A044400CFC4DE0002C2B3000800BE0053
:104D6000CE0A07000800BE00890A07000004E00020
:104D7000FCFF3A00082020000A044400CFC4DE00F3
:104D80000800BE00820A07007F0060000048A30000
:104D90000500320002C1B3000800BE00BF0A0700D0
:104DA0006158B8000D0037000038A300F1FF320051
:104DB00082C0B3000800BE00B80A070030FF2F0011
:104DC000F1FF2F0005003700B0FF2F00F1FF2F008B
:104DD00002003700C0FF2F00F1FF2F004F077800BF
:104DE0004F06BE004F05BE004F04BE006F00B1006D
:104DF00000000600F4874700889FBE008A9FBE001F
:104E00008C9FBE008E1F780000447800010578005A
:104E10008204780083057800C4B79F000080EB000F
:104E20008080EB00E84F5400BA003E000886FB008B
:104E30004567DD00680747006170B900540A070044
:104E40000081FB006F006100E20F500002003200A1
:104E5000E40F5000AA003A0020FF2F00F1FF2F00BE
:104E60000900E000AB0032000C004600E1D3210055
:104E7000610078008006EB000000E00018003A00B6
:104E8000130020008C19DD000840780082BF9F00CD
:104E9000F3B79F007C0B07008006780000302000ED
:104EA0000E004000CF80DE00390A07000FB99700DE
:104EB000FFB197000004E00094003200D140800070
:104EC00003806000040032006000B8000D00E000C4
:104ED00003003A008F0037000D00E000EAFF3200C7
:104EE000670061000C014600E20F50000300320031
:104EF000E40F500065003A002E003700E0D3210097
:104F0000600079000000E00055003A0082002000B7
:104F100001FE2F008F80400008407800B60B07008C
:104F2000001020000E0040006101B900D2B79F00C0
:104F3000E3B79F0002C4B3005FB09700EFB09700E3
:104F4000560A07005FB09700EFB09700100A0700FD
:104F50000004E000FBFF3A008FE19700834D7800EA
:104F60001FE0970090459800AFE09700A14598009A
:104F70003FE19700B2459800CFE09700C808DD00F8
:104F80005FE097000080FB00CFB197008089400070
:104F90000C004600E1D32100008040006FE1970043
:104FA0004811DD00FFE097008180FB00010841000F
:104FB00028003700E0D32100600079000000E00005
:104FC00027003A002200200001FE2F008F804000C1
:104FD00008407800880B0700001020000E004000F9
:104FE0006101B900D2B79F00E3B79F0002C4B300CC
:104FF0005FB09700EFB09700280A07005FB09700F6
:10500000EFB09700E20907000004E000FBFF3A0060
:105010008FE197008380FB00C808DD001FE0970048
:105020000080FB00008040008C004600E2D321009D
:1050300000B17800A15E2000810F5000050036000D
:10504000084078004AFC070070C12F00F1FF2F00D4
:105050003000370001C8B30060D3210001707E002A
:105060000C004600E1D32100E1067800898F56004C
:1050700001003600890678000D0178008A0078006A
:10508000084078005C0B0700070037008D007800AF
:105090000840780082BF9F008E0B0700E0D32100FC
:1050A0000FB997000D307900081020000E0444005D
:1050B000CFC4DE0002C4B3000800BE00F709070039
:1050C0000800BE00B20907000004E000FCFF3A003F
:1050D0000C004600E2D32100E20078008D805000F1
:1050E0000131780060D3210002003200E0407E00F0
:1050F0000104A00001707E006168B800050037005F
:10510000B0FF2F00F1FF2F0002003700C0FF2F007B
:10511000F1FF2F004F0778004F06BE004F05BE007D
:105120004F04BE004F01B10000000600881F780048
:10513000804178000204780000C0EB00E8CF510005
:1051400055003E00610AB80060CFB300E70F52007F
:10515000E08F5A0050003E00046001000700370055
:105160001A0037001E0037002100370029003700E1
:1051700031003700340037003F0037009840780096
:10518000E1CF500007003A008381FB0011002000AE
:105190008309DD00030078001A28B7000140780079
:1051A0003D00370060CFB3000104E0003A003A0050
:1051B0008381FB00100020008301DD008381EA0071
:1051C000A181200091886100330037008381FB00BA
:1051D000D04080008301DE0061CC61002D003700EB
:1051E0000380FB004500DD0081F021000300370053
:1051F0000380FB004500DD0081E02100010040004C
:10520000CF80DE00620907004A00DD00000C780054
:10521000200037001841780060CFB300FF4F5100E5
:105220001D003E007F4161000380FB004500DD0062
:105230008020B0000D0037000380FB004500DD003A
:105240008020B000100037001841780060CFB30014
:10525000FF4F510010003E007F4161000380FB00C2
:105260004500DD0081C0220001004000CF80DE004B
:105270008A090700070037000380FB004500DD00B6
:1052800081C0220001004000CF80DE0040090700FD
:105290007F4C600010C0B3004F047800000006008F
:1052A000889FBE008A9FBE008C9FBE0002047800CB
:1052B00000C1EB00E84F500070003E00610AB800EA
:1052C00061025200E0825A0062CFB300E60F520042
:1052D000E08F5A0069003E000080FB00046001007E
:1052E00006003700080037000D00370017003700B0
:1052F0001E0037002B003700520037004500DD004C
:1053000081602100020037004500DD00815021004E
:1053100001004000CF80DE00184178001F003700F8
:105320004500DD00E8044000180178004811DE0067
:105330000020210000804400CF80DE0057090700D4
:105340001801780000302100120037004500DD0010
:1053500081C0200001004000CF80DE00430020001B
:1053600008017800DA090700340037004500DD0045
:10537000E8044000180178004811DE000000210018
:1053800000804400CF80DE00440907001801780047
:105390000010210000804400CF80DE003F0907009C
:1053A000260037004500DD00680440006140B90078
:1053B000F70807006F006000B2CFB300E10F5000A4
:1053C0002E003A0000F0220000004400CF80DE00F2
:1053D000EF080700E2CFB3000004E00027003A0026
:1053E0000C10200008064600CFE6DE0022C2B30003
:1053F0000C00BE00290907000C0037000A2020001D
:1054000008054500CFD5DE000A00BE00E008070011
:105410000038A3000500320082C0B3000A00BE00BD
:105420001E09070032CFB300140037000C00BE0085
:10543000D70807000004E000F0FF3A0012C0B300F4
:105440000E0037004500DD00680540006150B900DE
:10545000CF080700EF046000B2CFB300E18F540023
:1054600006003A0000F0220000004500CF80DE0078
:1054700018417800090907000941780002407800C6
:105480004F06BE004F05BE004F04BE0000000600E0
:10549000889FBE008A9FBE00004478008204780086
:1054A00000C0EB00E84F540085003E006108B800E2
:1054B000EC0F5000E08F580080003E0000600100BB
:1054C0000C00370013003700160037001A003700B1
:1054D000230037002B0037007800370039003700F1
:1054E000490037004B0037004E00370054003700AA
:1054F000650037000880FB004500DD0068004000C3
:10550000CF80DE00A208070001CFB300814C60000D
:105510005B0037000880FB004500DD008160210052
:10552000030037000880FB004500DD0081502100AA
:10553000010040003E0037000884FB004544DD00C8
:10554000680444000020210000004400CF80DE00F9
:105550008F080700003021000000440034003700AD
:105560000880FB004500DD0081C0200001004000F4
:10557000CF80DE0043002000090178000709070002
:105580003F0037000884FB004544DD006804440008
:105590000000210000004400CF80DE007C080700EE
:1055A000004578000010210000004400CF80DE009C
:1055B000770807004855DD000080FB00800C45009F
:1055C0002F0037000884FB004544DD0068044400D8
:1055D0006140B9006E0807006F056000B0CFB300EE
:1055E000E10F550036003A0000F0220000004400B0
:1055F000CF80DE00660807000080FB00800C78008A
:105600000A4078002E00370008407800790907002A
:1056100002003700084078009B090700800C7800E2
:10562000170037000880FB004500DD008030B00027
:10563000CF80DE0056080700804C7800100037004D
:105640000885FB004550DD0068004000CF80DE008B
:105650004F08070080457800E1CF550005003A006B
:105660000840780088090700800C78000B4078001B
:10567000130037000A054500E0D32100E00C7D004F
:1056800010C0B3000E0037000884FB004540DD0069
:1056900068004000CF80DE003D080700EF0060009A
:1056A000B0CFB300E18F500005003A0060D3210075
:1056B000E04C7C000140780001003700E0CFB300EF
:1056C0004F05BE004F04BE00000006001100980008
:1056D000020878000000060021019000910190006E
:1056E000830141001700370012427800F5C2B30071
:1056F000854F520006003200B5C2B30085CF50007E
:105700000700320035C2B30085CF50000B003200D5
:1057100084CF50000A0032000F0037000201E80079
:105720008200E800838F500005003100F4C2B3000E
:10573000914F1200F9FF3A00010037000301E90020
:105740000201E800B04078000104E00002003200ED
:10575000830F5100E4FF39000000EB00830F51007C
:1057600003003A000180FB000000E9004F00DE006A
:1057700000000600889FBE008A9FBE008C1F780034
:105780000004780001057800820578008004EB00B1
:105790000D00370048109000200690000B007800A4
:1057A0000B110700C8009000898040006102B90019
:1057B0000A017800481090000C0001000000E00091
:1057C00011003500808444008A8F540005003D009C
:1057D0000B007800E61007000004E000EDFF320047
:1057E000090037000080EB008A8F540007003A0060
:1057F000A002200008004000E8009000EB10070025
:105800000000EB00010037000080EB004F0678003D
:105810004F05BE004F04BE00000006008000780067
:105820001101780010002000E10F4100010032005A
:105830000000410080087800000006000200FA0025
:10584000889FBE008A9FBE008C1F7800800578006C
:105850000105780002067800000DEB000004EB0063
:10586000190020000804E800E50F54001100320080
:105870001B007800900190006162B90012002000C6
:10588000EC80570003000100E10F500009003A00CE
:105890004FF0970000017800F207B20002C9B9008A
:1058A0001A0D41000004E00002003D00C74CDD007D
:1058B000ECFF3700080078004F0678004F05BE0067
:1058C0004F04BE000080FA00000006000200FA004B
:1058D000889FBE008A9FBE008C1F78000004BE0017
:1058E0000000EB00A0BF9F00481090001005900042
:1058F00009007800B61007006102B900120020000C
:10590000D8009000481090000A0001000085EB00CC
:10591000E10F500020003A0009007800AC100700A9
:10592000000178008002200008004000EC80570051
:10593000C2FF0700580090000000E800AFB89700D1
:10594000720D070000067800AFB897000100E00074
:105950000E00340048109000900590000900780077
:105960009B1007000C06E800D80090008C804000D7
:105970006102B9002FB99700481090000B00010098
:10598000AFB89700810F500003003A005800900014
:105990001085FB004455DE000A0078004F067800B1
:1059A0004F05BE004F04BE000080FA000000060054
:1059B000881F780041109800000478008003EB00F5
:1059C0008000EB00110C98008703E8006404440099
:1059D000E58F5300FAFF3A00120098004300980048
:1059E000240098005500980036009800010898009F
:1059F00061489800311098001100200001087800DB
:105A0000A002B000561007004F0478000000060006
:105A10000400FA00889FBE008A9FBE008C9FBE00D3
:105A20000005780081047800020678000A047800F6
:105A30008086EB008005EB00980890000100E000F4
:105A40001400320009007800E20D07000000E000B9
:105A500005003A0089007800180890001EFF070032
:105A60000004E0000B003200280890000000E00075
:105A7000080032000C01780089007800708057001F
:105A800012FF0700A8089000708057000100010075
:105A90008006EB008B05E80064044400E58F5500A8
:105AA000E5FF3A00E18F46000A003A003A10900004
:105AB0000000E000080032000C0178008900780046
:105AC0007080570001FF0700BA10900070805700E7
:105AD000010001008006EB000D0078004F06BE00BB
:105AE0004F05BE004F04BE000080FA000000060013
:105AF0000800FA00889FBE0000047800680090004B
:105B00008004EB000000E0001C003200A002200036
:105B100008004000161007008084EB000004E0003D
:105B200016003200684890000004E00013003A00BC
:105B30006C8057000A100700813E20006C805700DF
:105B400013100700A8009000480090001A0F0700EB
:105B50000000E000090034006C81570080007800EC
:105B60000800780003FF0700800478000900E000C7
:105B700002003A0010C0B300604C980009007800A1
:105B80004F04BE000080FA00000006001600FA0074
:105B9000889FBE008A9FBE0000047800010578003F
:105BA0008A0078000800780048FF07008004780029
:105BB000E58F540034003200ED8F54004A0032006B
:105BC000E38F54004A003A0038009000801F7800AC
:105BD000D80390006C835700EE8257007A825700FA
:105BE000F081570072815700FE8057007180570086
:105BF000271207008F87E900E10F500045003A00A7
:105C00002FB09700F0B79F0072815700F8805700BF
:105C1000080078007EFF07007FB097008005EB004A
:105C20000000E00033003200E10F500004003A00B1
:105C30001FBA97008041EB0042C0B3000500370057
:105C4000E20F500030003A001FBA97008041EB008D
:105C500052C0B300A8009000480090006B100700ED
:105C60000000E000280034000A017800800078007D
:105C700008007800BFFE070080057800E18F45002E
:105C80001C003A002200370038029000D801900032
:105C90007A815700FE8057007C8057003C12070035
:105CA000E10F500018003A003FB297008041EB002E
:105CB00062C0B300A8009000480090005310070095
:105CC0000000E000100034000A0178008000780035
:105CD00008007800A7FE0700800578000B00E000B0
:105CE00009003A00030037000040EB00604C9800C8
:105CF0008005EB00080078007DFF07000B00E00046
:105D000004003200020037008084EB0001003700FD
:105D10008B047800090078004F05BE004F04BE00D8
:105D20000080FA00000006000800FA00889FBE000C
:105D30000004BE006C805700890F070089007800BE
:105D40006C805700920F0700EC8057000800780025
:105D50008EFF0700E10F4000010032000000EB0061
:105D60004F04BE000080FA00000006000800FA00A0
:105D7000881F7800000478006A805700780F0700B9
:105D8000411F20006A805700810F0700EA805700FA
:105D9000080078007DFF0700F9FF3700889FBE00EC
:105DA0008A9FBE0080047800010478000205780014
:105DB0008085EB000A0078006D0F07000004E0000A
:105DC00006003A008A007800090078006FFF07009B
:105DD00080057800888F5500F6FF3A000B007800A8
:105DE0004F05BE004F04BE00000006003C00FA0054
:105DF000889FBE008A1F78000004780001057800A3
:105E000080FC2F0000804700E1062A0018000900EE
:105E100031187800080890008084EB000000E00052
:105E200037003A0000FC2F000F0040004C0F070025
:105E30009800900000FC2F000F004000540F070056
:105E40000A00E00002003A008AFC2F000F0545001E
:105E5000FA00900061049800A002200008004000B1
:105E6000520F07000A017800A80090004800900037
:105E7000A30D07008084EB000000E0002000340048
:105E800002FC2F000F01410080007800080078001C
