:100000000002040000000000C8020000C802000056
:10001000C8020000C8020000C8020000C8020000B8
:10002000C8020000C8020000C8020000C8020000A8
:10003000C8020000C8020000C8020000C802000098
:10004000C8020000C8020000C8020000C802000088
:04034800C8020000E7
:10040000CF8020000E7F22000E0188000000000037
:10041000000020000000E000020032000001200087
:1004200020028800140007005B0007000000E000C5
:1004300003003A00000A21000100200002003700FA
:100440000000200001002000810F70000100320038
:1004500014000700000020000000E000020032004D
:100460000000020000000000AC0D020000000000CF
:100470000040DA000000FE004440A90020032000F4
:100480000000E0000300320000002000A00188000E
:100490004440A800000006008A1F78008B1F7800E7
:1004A0000000060091018800800478000000EB0045
:1004B0001A003700E284440032A0B4009905BA0063
:1004C000E284440032A0B4009906BA00E2844400F9
:1004D00032A0B4000006EB00476FDE00FD07B2005B
:1004E000636CE10003003A00EBFF07000000EB0043
:1004F0000A003700606CE10004003A00005DEB0088
:100500008B05E900FDFF3E00040037006168E10053
:10051000010032000086EB000B00070019C7BA008B
:100520001905BA000E04E00003003A000A00E000DA
:10053000E0FF3A0000000600FE07B2009E018800BE
:100540008A047800F5FF3700395DBA008B05E900B1
:100550000C003200295DBA008B05E900080032006A
:100560000C00E00003003A00E284440032A0B40032
:10057000F5FF370019DDBA008B05E900FAFF3A00F4
:100580008904E800E184440032A0B40000000600C1
:100590000040DA000000FE00000005000001BE007F
:1005A000240007000470A70003F0A1006509B10052
:1005B000160032000D0035006828E1000600350005
:1005C000F0FF2F00F1FF27000300E00013003B00C5
:1005D0000100280000000500000040008180480064
:1005E0008502E900FCFF3A0008003700F88F42005E
:1005F00002003C008000EB00000005008100D100FB
:100600000080D3008502E800FCFF3A000300E00010
:1006100002003B0060001000E080180000000600AF
:100620004F89DE00820178008E0237006011B80029
:100630009C023700C70ADE00F107B200F50FB200D6
:1006400008003200E1CF4200020032000170A00039
:1006500024000500810F700001003200040805002D
:1006600044000500810F700002003A0014000500EC
:100670008502E9000000400081C04800FCFF3B000B
:100680000170A000240005006022B80006022000CE
:100690000000D0008180D2000482D2008582D20086
:1006A0000000A0000202520083825A0003003100C1
:1006B0000202420083824A000000A1000603E90012
:1006C000F3FF3A0000000600889FBE008A9FBE002C
:1006D0008C9FBE001B0020000202BE000586680041
:1006E00006002800060666004709DE00F20FB20089
:1006F000820032000243E80080003200C729DE0099
:10070000F30FB2007D0032000343E8007B003200AB
:10071000F107B2000170A000F507B2000570A0005B
:10072000C708DD004903DE00868070004700DD0059
:10073000C72ADD004923DE00868272004722DD00E1
:100740000305510004035000858358000300310065
:1007500000004000818048000A05E9008C1F7800F5
:100760008A9FBE00040050008580580004024200A9
:1007700085824A0000004000818048000005EB00AF
:100780000004BE006033B8000406BE000D48E1005E
:1007900056003100110009004DCCD8000C01B80002
:1007A0000D02B8008481410060824A0082835300B8
:1007B00003045C0084845C0060055D000A00E000C6
:1007C00025003A00800578000D40E1004900310025
:1007D0008800780007007800110009004D88D800D3
:1007E0000C01B8000D02B8008481410060824A000B
:1007F0006003110083835B0004045C00E0845C0000
:100800000900E00021003A004F01BE000300E000B3
:100810002B003200E3016000070673008C81710039
:1008200001003200640070004200DE004E5EDD0018
:100830000C007000C258DE0001E0A0008301070038
:10084000CF017800818071004F06BE004F05BE00C9
:100850004F04BE00000006008C8343000D044C00D2
:10086000E0844C0060054D000000E9000A00E00053
:10087000D4FF32008C8343000D044C00E0844C0014
:1008800060054D000000E900CEFF37000C03430077
:100890008D834B0060044C00E0844C000000E900B4
:1008A0000900E000D8FF32000C0343008D834B00A9
:1008B00060044C00E0844C000000E900D2FF3700E7
:1008C0004200DE004E5EDD000C007000C258DE000B
:1008D00001E0A000CF0178000300E000DAFF320061
:1008E00060001000E0801800D7FF3700F0FF2F00F5
:1008F000AAFF3700F0FF2F00B9FF37000404BE0045
:100900002F010700870678000004FD008104FD0028
:100910002B010700078366000678A300030032005E
:100920000960A7000800BE002C0037000D78A30066
:10093000020032000800BE00280037000778A3003C
:1009400026003A0001F0A10009F0A1000668A3000A
:1009500003003200F1FF2700F0FF2F00BAFF37003D
:100960000D68A300030032000800BE008C807000F8
:10097000B5FF37000768A30007003A000648A30048
:1009800003003200F1FF2700F0FF2F00AEFF370019
:100990000D48A300030032006000B8008C80700096
:1009A000A9FF37000748A3000400320001F8270020
:1009B000000020008C807000A3FF37007601070044
:1009C0000004FD008104FD000205780072010700AB
:1009D0000802BE008A01780059FF37000160A000BC
:1009E000120220005240880097FF37000100E0000B
:1009F000120032000500E00010003200889FBE00A7
:100A00008A9FBE008C9FBE000006EB0001F8A30089
:100A10000300320060001000E08018000CF0A0001D
:100A200005F8A3000300320060021200E0821A0001
:100A30000CF0A2008005EB0041FF37006000B80019
:100A40000200050003836800070028000703630015
:100A5000470ADE000480A100C71ADE000580A1005D
:100A6000F70F20000720E100420032000728E100D4
:100A700040003200889FBE008A9FBE008C1F780015
:100A8000F107B200F307B2000400E0006400320096
:100A90000170A0000500E000680032000370A000B3
:100AA00085054200EB07B1000204B8000302B8005C
:100AB0008484440060854A00020AB80084844400AB
:100AC0000A854A00030AB800040545000400330003
:100AD0000804D0008984D2000A85D2008B05E90081
:100AE0006158E1003D00350002102000090161005D
:100AF0000308200089816100F707200087836400D4
:100B000008867300C84CDE00C853DD00878474007B
:100B10004855DE000300E000060032008203760044
:100B2000040032008904E80060054D000A88A30033
:100B30000C003A00F70F20000758E10044003D0088
:100B40000A70A100C75DDD000A8575008A00730088
:100B5000090078004F0678004F05BE004F04BE0024
:100B6000000006000A05D1008984D3008B05E80047
:100B7000F0FF3700881F7800060478009000070017
:100B8000070278000001FD008101FD008C000700D4
:100B900087027800850372000778A3000500320001
:100BA0000001FD008101FD009F0007004F04780057
:100BB00000000600850372000748A300030032000E
:100BC000F0FF2F00F1FF2700F8FF370000002000A2
:100BD00001F8270088807000F4FF37008801780052
:100BE0004848DD00808171004848DE00C850DD00C3
:100BF00001007000C850DE00060478000B01780088
:100C00001600070088807000D2FF37000500E00062
:100C100005003200170020003A0007009DFF370052
:100C200081037000F9FF3A00860078004F067800D3
:100C30004F05BE004F04BE00000005008303710095
:100C4000F9FF3200270020002E00070094FF370034
:100C500001F8270086807000F4FF37000100E000F3
:100C600026003200610111007810E10023003C00F1
:100C70006022B8007010E1000400350080027800A6
:100C8000010078008000EB00700151000200E000DC
:100C90000900340070031100062ADD00822ADE00FC
:100CA0008603DD00878272000200DE00860BDD0015
:100CB000070070008208DE0084817100F4FF2700C5
:100CC0000482620084817100040028008482620032
:100CD0006102600005F0A6000000060004827100B9
:100CE000070032000000E800E08048000000060035
:100CF0000002BE006000B800EFFF37006000B800DF
:100D000000000600889FBE000004EB006138E1008F
:100D100016003A000100E00008003A00C800DE00BA
:100D20004800DD00880020000100E00003003A00D8
:100D3000C800DE004800DD00680444008184CF0064
:100D4000E9845400060034008908DD00F0831400B3
:100D50008703DE00878070000900DD00090444007D
:100D6000610214004F04BE00000006000300E00012
:100D700008003A00C811DE004811DD00880020009C
:100D80000300E00003003A00C811DE004811DD0056
:100D9000680444008384CF00E984540006003400D2
:100DA0008919DD00F08314008713DE00878171004C
:100DB0000911DD0009044400E1021400E9FF3700D5
:100DC0002700200001F0A70017002000470BDE00DD
:100DD000F60FB200040032000643E8000A003200B9
:100DE0004702B3000000060001037800F607B200D6
:100DF0000603700002003A000703B300000006007B
:100E00008702B3000000060001037800F607B20075
:100E100006037000020032000770A0000000060008
:100E20000760A000000006000478A3000400320060
:100E30000578A300030032000168A30001003A0016
:100E40000200BE000160A0000000060081017000E9
:100E5000270032008002EB0001F8A30003003200FB
:100E600060001000E080180015002000F40720004A
:100E70000202420020003400F703200087036000D4
:100E80000604200000036300020820000001610046
:100E90004700DE00C909DD0000807100C708DE00E0
:100EA0000600E000080032008703710006003200EF
:100EB0001000B0000180B0000188A30002003200E1
:100EC000C108DE000402E800F107B200F30F2000C1
:100ED0000320E10003003D004722DD008100720095
:100EE0002900370001F827000000EB00260037003A
:100EF0006000B80000000600680212007F20E100D8
:100F0000020034006000B8001F0037006011B80014
:100F10007020E100040035008001780001007800B5
:100F20008000EB00700252000400E0000900340071
:100F3000F00312000719DD008419DE000703DD004D
:100F4000868171000400DE00070BDD0006007000E2
:100F50008408DE00F7FF27008383630087037100A6
:100F60000600280003036300070032000700E000CA
:100F700003003A0061016000028173000200320048
:100F80001000B0000180B0000500A60000000600BF
:100F900001F0A000000006004F0ADE004709DE0055
:100FA000F107B200F20FB2000B003200F207B100FD
:100FB0000170A000C708DD00C901DE008380700059
:100FC0004700DD000400A6000000060060001000DD
:100FD000E080180000000600810F700001003A0058
:100FE000000006008182CF000500E00010003E00F6
:100FF0008082CF00EE8242007028E10004003900B8
:1010000007003E00800078000000EB000E00370073
:10101000708312008600DE000500DD000A00370044
:10102000708352008600DD000000EB0006003700F0
:10103000E28252008508DD00708312000603DE00A4
:10104000868070000500DD007507B0000501EA002C
:101050000400A6000000060060001000E0801800F8
:1010600000000600881F7800030478000300E000F9
:1010700007003D0060001000E080180060011900CA
:10108000E081190002003B0001F02D000300370051
:101090000400070008F0A70001F0A0004F0478004A
:1010A00000000600889FBE008A9FBE00008270007C
:1010B0000402710004827100260032000004BE00A8
:1010C0000200BE006011B8006B09200095022000EC
:1010D0000182CF000A0039000541B1000082CF0033
:1010E000070039000541B1000982CF000400390032
:1010F0000541B1000882CF00010039000541B1006F
:1011000005425200120032000A003B008281710049
:10111000610164008100D1000080D3008984D30084
:101120000884D3008B05E8000442E800F7FF3A008A
:10113000070037000804440089844C000000480080
:10114000818048008B05E9000442E900F9FF3A007C
:10115000030007004F05BE004F04BE00000006005C
:1011600081002000618055000B003D000B00200035
:1011700061FE2F000100E1001D003400828171003A
:10118000610164008904D1000884D3000000E800F4
:10119000FAFF3A0071002000610064000300700053
:1011A000020060000900320061044400E0844C0049
:1011B0000988A500050032008B05E8006808E100F9
:1011C00002003A008904D1000884D300F20F200005
:1011D0000258E10005003D00C75DDD00F907B200DF
:1011E0008980750008007800000006000BF82700D1
:1011F0008B007800000005005445000053540000A7
:101200005F5000004D5000005F4D00004F44000053
:10121000452000003136000030320000004E000052
:1012200045570000204C0000494200005F5000007C
:101230004D500000005400002D3E0000004800000A
:101240002D3E0000005000002D3E00000020000058
:101250006D6D00004867000000000000D422A90066
:101260000000FB00401388000102200002138000F0
:1012700002806000FDFF3A00401380006822EF000A
:10128000010220000213800002806000FDFF3A008E
:10129000D422A8004013800000000600889FBE00F2
:1012A0000044780008407800ECFF0700C804DD0027
:1012B0000840E800E9FF07000080FB00090070001B
:1012C0004F04BE0000000600F4FF0700C800DD0068
:1012D0004800DE000080700000000600FAFF0700F2
:1012E00000000600D422A9000000FB000070A1004D
:1012F00040138800020220000313800003006100F5
:10130000FDFF3A00401380008100FB00411388007C
:10131000010220000213800002806000FDFF3A00FD
:1013200040138000D422A80000000600D422A900A7
:1013300011C0B30020CFB300EAFF070051C2B300D1
:1013400040CFB300E7FF0700D422A800000006004A
:10135000889FBE008A9FBE008C9FBE0080C8B300DD
:10136000D9FF07006105B800A0C8B300DBFF070084
:1013700080047800C0C8B300D8FF070000047800DC
:10138000A0CFB300C5FF07008000EB00480EDD00D2
:10139000C806DE008D0676004806DD00C0CFB3002B
:1013A000AEFF07000080FB008000EB000006760027
:1013B000818676004869DD004860DE00000071002B
:1013C000C868DE000A0050008B8058000089B90010
:1013D000020141000000B80081004100440ADD0024
:1013E0004C00DE0000007200CC08DE006142B90053
:1013F0000889B90000AAB900020142000800B8003B
:10140000810041004209DD004E00DE000000710055
:10141000CE08DE00496ADD004766DE000C06720079
:10142000C76EDE000A0545008B854D000A05560093
:101430008B855E00614AB90009D9B9000AAAB900D2
:10144000020142000955B8008B0541004559DD00F5
:101450004B55DE000A057100CB5DDE000000450043
:1014600081804D0020408800314088006509B90026
:101470006500B800810041000001BE000208B00014
:101480000380B000481ADD004810DE000000720042
:10149000C898DE0062FC070002002000832C2400B4
:1014A00089FC07003DFC07004F06BE004F05BE004B
:1014B0004F04BE0000000600E4874700889FBE007E
:1014C0008A9FBE008C9FBE008E1F780010CAB3009A
:1014D00062FF070080F79F0010CEB3007FFF070078
:1014E0000004780030CEB3005CFF0700804678002F
:1014F00040CEB30059FF07000045780050CEB3003E
:1015000056FF07008044780060CEB30053FF070009
:101510000046780050CEB30050FF070080457800A9
:1015200070CEB3004DFF070000477800D0CFB30066
:101530005AFF070002402D00E3FF2F0024408000E7
:101540003540800004014100858149008000EB00A6
:101550004E0ADD00C202DE00850272004E02DD008E
:10156000EF8464000A85FB004455DD000900750026
:10157000CF80DE00C400DD0000002000000052002B
:1015800081805A000B82FB004422DE000C86FB00A7
:101590004466DD00040276006123B90002BBB90095
:1015A000049DB900060345000222B80085024300ED
:1015B0000400500085805800060024000700200029
:1015C0000000430081804B00C10ADD004F00DE00B7
:1015D00000807200CF08DE008D86FB000D9BB900F5
:1015E000026AB80085024300452BDD004B22DE0075
:1015F00004027300CB2ADE0006002800070020004A
:101600000402430085824B008E86FB00616BB900AB
:1016100002BBB9000D9DB900060345000269B80080
:1016200083014300461BDD004A11DE000201730006
:10163000CA19DE0002ABB900049DB90006034500DB
:101640000221B80083014300461ADD004A11DE0082
:1016500002017200CA19DE00040020000502200009
:101660000201420083814A006143B900089AB9002F
:1016700002BBB900040243000811B8008301420014
:1016800008002200090020000201440083814C0070
:10169000C21ADD004E11DE0002817200CE19DE009A
:1016A000009AB900028BB900040243000011B8008F
:1016B00083014200411BDD004F10DE00000073007B
:1016C000CF18DE00008AB900040242000000B80012
:1016D00081004200C70ADE00490BDD004702DE0040
:1016E000040273000FF097008080FB0001ABB9008B
:1016F0000120B800810043004C0ADD004400DE00F8
:1017000000007200C408DE00000151008181590010
:101710000000200001902100800F5100818F5900AE
:10172000010036000001BE00C41ADD004C10DE00CE
:1017300000807200CC18DE00BCFB07000200200015
:1017400003A82300BFFC070094FB07004F077800A5
:101750004F06BE004F05BE004F04BE004F00B10053
:1017600000000600F6874700889FBE008A9FBE00E3
:101770008C9FBE008E1F7800E0C8B300D2FE070029
:101780000005780000C9B300D4FE0700000478000B
:1017900020C9B300D1FE07008004780040C9B3001F
:1017A000CEFE070090B79F0060C9B300CBFE0700D4
:1017B0000006780080C9B300C8FE070080057800E5
:1017C000A0C9B300C5FE070080B79F00C0C9B30021
:1017D000C2FE070080067800E0C9B300BFFE070024
:1017E0000007780070CFB300ACFE0700F0AF9F0099
:1017F00090CFB30099FE070080F79F002040800043
:10180000314080008180D1000080D3000260200040
:10181000F3FF2F0000004100818049004E09DD00E8
:101820004202DE0004027100C28ADE0004A9B9008F
:10183000020141000422B800850241006143B90061
:1018400000B9B900E2B79F00F3B79F000889B9005B
:10185000EFB39700070341000041B800E2B79F00D3
:10186000F3B79F0083014300F3B79F006FB3970066
:10187000FFB397008783D1000683D300E6B79F00AC
:10188000F7B79F006149B900C2B79F00D3B79F0067
:10189000432BDD004D21DE0002017300CDA9DE00E7
:1018A000DFB3970002BBB900C6B79F00D7B79F0050
:1018B000099BB900A6B79F00B7B79F004FB4970028
:1018C000880343000249B800838143004D1BDD00BB
:1018D0004314DE0008047300C39CDE006FB1970060
:1018E000FFB197000204440083844C0042C9DE002B
:1018F000CFC9DE00080028000900200002014400D2
:1019000083814C000A9BB900E6B79F00F7B79F00A0
:101910000A14B80089044300C14BDD004F41DE00CA
:1019200002817300CFC9DE008003EB00E00F51009D
:10193000E08F5900810032007FAD97006154B800FC
:10194000484BDD00C843DE00870373004843DD00D9
:10195000C6B79F00D7B79F000FF497000883FB001E
:101960008003EB004FB49700DFB4970006047400C7
:1019700087847400E8B79F00F9B79F00615CB900E5
:10198000452DDD004B23DE0006037500CBABDE00EA
:1019900006CAB9000BBCB90004024400065BB800DB
:1019A000870342006162B90000AAB9000C8CB9003B
:1019B000040244000060B8008100420000004000C2
:1019C000818048000000430081804B004E0ADD000A
:1019D0004204DE0008047200C28CDE006FB3970080
:1019E000FFB397004C3DDD004430DE000000750081
:1019F000C438DE0060001000E08018001FB39700BC
:101A00006132B900C022DD00040020000804420059
:101A100089844A00C44BDD004C42DE00048273001E
:101A2000CCCADE00040250008582580051C3200059
:101A300001ABB9000120B800810043000400200080
:101A400005352C000000420081804A00040033006C
:101A500000004000818048000BFB070003003700B6
:101A600009FB07000000400081804800C309DE0038
:101A70004D0CDD004301DE0002017400C20ADE00ED
:101A8000CE0CDD004202DE0004827400616CB900FD
:101A90000DABB90004CCB900060344000D22B80018
:101AA00085024300432DDD004D23DE000603750053
:101AB000CDABDE000FB29700CFA2DE0006034200DE
:101AC00087834A00029AB900040242000211B8005A
:101AD00083014200431CDD004D11DE000201740051
:101AE000CD19DE006174B9000E9AB90002CCB900BC
:101AF000040244000E11B80083014200C41CDD0042
:101B00004C12DE0004827400CC9ADE000602420011
:101B100087824A004C2DDD004421DE000201750061
:101B2000C4A9DE0002004000838048005208200063
:101B300003002000D4FA0700800378000700780033
:101B40004F0778004F06BE004F05BE004F04BE0091
:101B50006F01B10000000600889FBE008A1F780058
:101B60001C0107004C01070060010700B9000700D5
:101B7000C08F2800FC00070000002E00010120009B
:101B80006101070041C0B30010C0B3000B010700A2
:101B9000F0902800F400070000002C00810A2000CB
:101BA00059010700BA47210078662600DFFD0700CB
:101BB000E7FD07004040880000002B0011002000D6
:101BC000510107003CFE07000040880000002B0088
:101BD000110020004C010700E2FE070010408800C1
:101BE000EE000700B0912800DF00070041408000B0
:101BF0000A89B9004398DE00CF88DE00010050005A
:101C0000A2002000110009000200D80001017800A4
:101C10000204E0000400320000C3B3008040410031
:101C200010002000BD000700414080000889B90075
:101C30004298DE00CF88DE00010050000881B90024
:101C40004299DE00CF80DE00010151006A11B90027
:101C5000024050000400320002C3B3008240400042
:101C600010002000AD00070041408000A9002000C6
:101C7000110009008900D8000143B00010002000C5
:101C8000A600070021CBB30010002000A30007002E
:101C900031C4B30010002000A0000700C1C2B3008F
:101CA000100020009D00070091C0B3000040EB0031
:101CB000C2000700F0912800AB000700014080003F
:101CC0000A89B9004398DE00CF88DE000100500089
:101CD000110009000900D800810478000904E0001F
:101CE0000400320002C3B30082C044001000200090
:101CF0008A000700014080000889B9004298DE0090
:101D0000CF88DE00010050000881B9004299DE0052
:101D1000CF80DE00010151006A11B900024050007D
:101D20000400320002C3B3008240400010002000D3
:101D30007A00070001408000A9002000110009007E
:101D40008900D8000143B000100020007300070094
:101D500051C2B30010002000700007008040EB006B
:101D600010C0B30095000700309228007E000700E5
:101D700010408000823E2000110009000200D800BF
:101D8000110009000900D800810478000904E0006E
:101D90000400320002C3B30082C0440010002000DF
:101DA0005E000700114080000A89B9004398DE00F8
:101DB000CF88DE0001005000A200200011000900C1
:101DC0000200D800010178000204E00004003200A3
:101DD00000C3B30080404100100020004F00070006
:101DE000114080000889B9004298DE00CF88DE00EB
:101DF000010050000881B9004299DE00CF80DE006A
:101E0000010151006A11B900024050000400320083
:101E100002C3B30082404000100020003F000700D2
:101E200011408000A2002000110009008200D800AB
:101E30000143B00010002000380007007092280015
:101E40004900070000002E0001012000AE0007003D
:101E500056FF3700F03B280000308800F03F20009C
:101E60001030880010002000603088000003280037
:101E7000200888000021EF00F07C20000001E30032
:101E8000FEFF36000426EF0080032000403088006B
:101E90000021EF0000088000E20F5000FDFF360037
:101EA000C0002000403088000021EF0000088000C2
:101EB000E20F5000FDFF3600100020004030880087
:101EC0000021EF00300620000001E300FEFF360095
:101ED00060002000403088000021EF003006200024
:101EE0000001E300FEFF36000000060002002800AB
:101EF0001330800083006100FDFF3A00203088002D
:101F00004030800001002800123080000280600014
:101F1000FDFF3A004030800000000600889FBE00B0
:101F20008A1F780080047800014578000004EB00E7
:101F300008007800EDFF07000004E000FCFF35001A
:101F4000010028001230800002806000FDFF3A008E
:101F5000293088000A05FB004A3088004F057800C8
:101F60004F04BE0000000600889FBE00904078002D
:101F70000104E0000700320000047800190020008E
:101F800009007800E5FF0700D84078000104E00070
:101F9000FBFF3A004F04BE000000060011C0B30072
:101FA0000000EB00DDFF07000000060021C0B300C9
:101FB0000000EB00D9FF0700000006004600DD002E
:101FC00080C040000174A0000000EB00D3FF0700B8
:101FD00000000600C422EF00CC22EF00D422EF0064
:101FE0007079200000168800B0FF2F00401688008E
:101FF000C03F2000801688006820EF006A20EF00B4
:10200000C622EF00CE22EF00D622EF00C00F200044
:1020100060198800F00B20004207B6006104200020
:1020200072052000237420008149780082497800DD
:102030008049780000FE2F00843680008401600013
:10204000A300B3008336880014368000840160004A
:10205000B300B30013368800AC06B6003000B300FE
:1020600060358800F30F2E0080368000808161008B
:1020700000C020000300700080368800103A800005
:102080000060A00023742000814978008249780014
:10209000804978000000060000102300203A8800E4
:1020A0004827EF007027EF007227EF007427EF003A
:1020B000A1092000220020008007200033742000A6
:1020C00080497800814978008249780071052000B4
:1020D0000001EB0060042000237420008049780098
:1020E000814978008249780000000600000620003F
:1020F000101388001000200020138800C000280062
:102100000013880000000600F03FB1000180B1001C
:1021100006003500EE03090000000000403FB1005A
:102120000180B100FBFF3D001000B000203FB00077
:1021300002003500008009000000000000000600D9
:102140000808000002000000020000001503000063
:102150000008000004000000000000000408000067
:1021600004000000000000000A0800000200000057
:08217000000000000000000067
:020000040001F9
:0857F8007E7A00007F3F0000F3
:00000001FF
