:100000000002040000000000C8020000C802000056
:10001000C8020000C8020000C8020000C8020000B8
:10002000C8020000C8020000C8020000C8020000A8
:10003000C8020000C8020000C8020000C802000098
:10004000C8020000C8020000C8020000C802000088
:04034800C8020000E7
:10040000CF8020000E7F22000E0188000000000037
:10041000000020000000E000020032000001200087
:1004200020028800140007005B0007000000E000C5
:1004300003003A00C0FD2000010020000200370048
:100440000000200001002000810F70000100320038
:1004500014000700000020000000E000020032004D
:1004600000000200000000002E0D0200000000004D
:100470000040DA000000FE004440A90020032000F4
:100480000000E0000300320000002000A00188000E
:100490004440A800000006008A1F78008B1F7800E7
:1004A0000000060091018800800478000000EB0045
:1004B0001A003700E284440032A0B4009905BA0063
:1004C000E284440032A0B4009906BA00E2844400F9
:1004D00032A0B4000006EB00476FDE00FD07B2005B
:1004E000636CE10003003A00EBFF07000000EB0043
:1004F0000A003700606CE10004003A00005DEB0088
:100500008B05E900FDFF3E00040037006168E10053
:10051000010032000086EB000B00070019C7BA008B
:100520001905BA000E04E00003003A000A00E000DA
:10053000E0FF3A0000000600FE07B2009E018800BE
:100540008A047800F5FF3700395DBA008B05E900B1
:100550000C003200295DBA008B05E900080032006A
:100560000C00E00003003A00E284440032A0B40032
:10057000F5FF370019DDBA008B05E900FAFF3A00F4
:100580008904E800E184440032A0B40000000600C1
:100590000040DA000000FE00000005000001BE007F
:1005A000240007000470A70003F0A1006509B10052
:1005B000160032000D0035006828E1000600350005
:1005C000F0FF2F00F1FF27000300E00013003B00C5
:1005D0000100280000000500000040008180480064
:1005E0008502E900FCFF3A0008003700F88F42005E
:1005F00002003C008000EB00000005008100D100FB
:100600000080D3008502E800FCFF3A000300E00010
:1006100002003B0060001000E080180000000600AF
:100620004F89DE0082017800940237006011B80023
:10063000A2023700C70ADE00F107B200F50FB200D0
:1006400008003200E1CF4200020032000170A00039
:1006500024000500810F700001003200040805002D
:1006600044000500810F700002003A0014000500EC
:100670008502E9000000400081C04800FCFF3B000B
:100680000170A000240005006022B80006022000CE
:100690000000D0008180D2000482D2008582D20086
:1006A0000000A0000202520083825A0003003100C1
:1006B0000202420083824A000000A1000603E90012
:1006C000F3FF3A0000000600020AB900001BB9005F
:1006D0000200B800810042008100430000000600D3
:1006E000889FBE008A9FBE008C9FBE001B0020001A
:1006F0000202BE00058668000600280006066600A5
:100700004709DE00F20FB200820032000243E80027
:1007100080003200C729DE00F30FB2007D003200F6
:100720000343E8007B003200F107B2000170A00033
:10073000F507B2000570A000C708DD004903DE0020
:10074000868070004700DD00C72ADD004923DE00F7
:10075000868272004722DD00030551000403500029
:10076000858358000300310000004000818048006C
:100770000A05E9008C1F78008A9FBE000400500023
:10078000858058000402420085824A000000400033
:10079000818048000005EB000004BE006033B80013
:1007A0000406BE000D48E1005600310011000900AA
:1007B0004DCCD8000C01B8000D02B8008481410076
:1007C00060824A008283530003045C0084845C00DE
:1007D00060055D000A00E00025003A008005780011
:1007E0000D40E100490031008800780007007800E2
:1007F000110009004D88D8000C01B8000D02B800A6
:100800008481410060824A006003110083835B00A1
:1008100004045C00E0845C000900E00021003A0070
:100820004F01BE000300E0002B003200E301600036
:10083000070673008C8171000100320064007000B3
:100840004200DE004E5EDD000C007000C258DE008B
:1008500001E0A00083010700CF01780081807100D2
:100860004F06BE004F05BE004F04BE00000006004C
:100870008C8343000D044C00E0844C0060054D0067
:100880000000E9000A00E000D4FF32008C8343003E
:100890000D044C00E0844C0060054D000000E900B0
:1008A000CEFF37000C0343008D834B0060044C00E7
:1008B000E0844C000000E9000900E000D8FF3200AD
:1008C0000C0343008D834B0060044C00E0844C001B
:1008D0000000E900D2FF37004200DE004E5EDD007E
:1008E0000C007000C258DE0001E0A000CF017800CB
:1008F0000300E000DAFF320060001000E080180022
:10090000D7FF3700F0FF2F00AAFF3700F0FF2F00BE
:10091000B9FF37000404BE002F01070087067800E6
:100920000004FD008104FD002B0107000783660021
:100930000678A300030032000960A7000800BE008B
:100940002C0037000D78A300020032000800BE0022
:10095000280037000778A30026003A0001F0A10024
:1009600009F0A1000668A30003003200F1FF270090
:10097000F0FF2F00BAFF37000D68A300030032001C
:100980000800BE008C807000B5FF37000768A30028
:1009900007003A000648A30003003200F1FF2700D9
:1009A000F0FF2F00AEFF37000D48A3000300320018
:1009B0006000B8008C807000A9FF37000748A300D2
:1009C0000400320001F82700000020008C80700035
:1009D000A3FF3700760107000004FD008104FD003D
:1009E00002057800720107000802BE008A01780043
:1009F00059FF37000160A000120220005240880019
:100A000097FF37000100E000120032000500E0000F
:100A100010003200889FBE008A9FBE008C9FBE00DF
:100A20000006EB0001F8A300030032006000100094
:100A3000E08018000CF0A00005F8A30003003200CD
:100A400060021200E0821A000CF0A2008005EB00A8
:100A500041FF37006000B800020005000383680012
:100A60000700280007036300470ADE000480A10096
:100A7000C71ADE000580A100F70F20000720E10063
:100A8000420032000728E10040003200889FBE008B
:100A90008A9FBE008C1F7800F107B200F307B200F6
:100AA0000400E000640032000170A0000500E000D6
:100AB000680032000370A00085054200EB07B1001A
:100AC0000204B8000302B8008484440060854A0030
:100AD000020AB800848444000A854A00030AB80068
:100AE00004054500040033000804D0008984D200C6
:100AF0000A85D2008B05E9006158E1003D00350010
:100B000002102000090161000308200089816100B2
:100B1000F70720008783640008867300C84CDE0056
:100B2000C853DD00878474004855DE000300E000F0
:100B30000600320082037600040032008904E800D7
:100B400060054D000A88A3000C003A00F70F200052
:100B50000758E10044003D000A70A100C75DDD00B8
:100B60000A8575008A007300090078004F06780036
:100B70004F05BE004F04BE00000006000A05D1006C
:100B80008984D3008B05E800F0FF3700881F7800C8
:100B90000604780090000700070278000001FD00BD
:100BA0008101FD008C000700870278008503720038
:100BB0000778A300050032000001FD008101FD005F
:100BC0009F0007004F0478000000060085037200B4
:100BD0000748A30003003200F0FF2F00F1FF2700B9
:100BE000F8FF37000000200001F82700888070001F
:100BF000F4FF3700880178004848DD0080817100EB
:100C00004848DE00C850DD0001007000C850DE001A
:100C1000060478000B017800160007008880700039
:100C2000D2FF37000500E000050032001700200069
:100C30003A0007009DFF370081037000F9FF3A007A
:100C4000860078004F0678004F05BE004F04BE00B6
:100C50000000050083037100F9FF32002700200027
:100C60002E00070094FF370001F8270086807000EF
:100C7000F4FF37000100E00026003200610111009E
:100C80007810E10023003C006022B8007010E10001
:100C90000400350080027800010078008000EB003D
:100CA000700151000200E0000900340070031100DF
:100CB000062ADD00822ADE008603DD0087827200BC
:100CC0000200DE00860BDD00070070008208DE00F7
:100CD00084817100F4FF2700048262008481710026
:100CE00004002800848262006102600005F0A60012
:100CF0000000060004827100070032000000E800D6
:100D0000E0804800000006000002BE006000B8005D
:100D1000EFFF37006000B80000000600889FBE00AB
:100D20000004EB006138E10016003A000100E00029
:100D300008003A00C800DE004800DD0088002000FE
:100D40000100E00003003A00C800DE004800DD00BA
:100D5000680444008184CF00E98454000600340014
:100D60008908DD00F08314008703DE0087807000AF
:100D70000900DD0009044400610214004F04BE00B4
:100D8000000006000300E00008003A00C811DE0081
:100D90004811DD00880020000300E00003003A0055
:100DA000C811DE004811DD00680444008384CF00D0
:100DB000E9845400060034008919DD00F083140032
:100DC0008713DE00878171000911DD0009044400EA
:100DD000E1021400E9FF37002700200001F0A7001E
:100DE00017002000470BDE00F60FB20004003200AF
:100DF0000643E8000A0032004702B3000000060084
:100E000001037800F607B2000603700002003A0002
:100E10000703B300000006008702B30000000600CD
:100E200001037800F607B2000603700002003200EA
:100E30000770A000000006000760A0000000060088
:100E40000478A300040032000578A30003003200F8
:100E50000168A30001003A000200BE000160A0008A
:100E60000000060081017000270032008002EB00C4
:100E700001F8A3000300320060001000E0801800B9
:100E800015002000F4072000020242002000340078
:100E9000F7032000870360000604200000036300BE
:100EA00002082000000161004700DE00C909DD00E2
:100EB00000807100C708DE000600E0000800320074
:100EC00087037100060032001000B0000180B000FE
:100ED0000188A30002003200C108DE000402E8001D
:100EE000F107B200F30F20000320E10003003D00F2
:100EF0004722DD00810072002900370001F8270039
:100F00000000EB00260037006000B800000006007B
:100F1000680212007F20E100020034006000B80087
:100F20001F0037006011B8007020E1000400350098
:100F300080017800010078008000EB007002520010
:100F40000400E00009003400F00312000719DD007E
:100F50008419DE000703DD00868171000400DE00D5
:100F6000070BDD00060070008408DE00F7FF270095
:100F70008383630087037100060028000303630076
:100F8000070032000700E00003003A006101600042
:100F900002817300020032001000B0000180B00036
:100FA0000500A6000000060001F0A00000000600F9
:100FB0004F0ADE004709DE00F107B200F20FB2006F
:100FC0000B003200F207B1000170A000C708DD007D
:100FD000C901DE00838070004700DD000400A60028
:100FE0000000060060001000E0801800000006000D
:100FF000810F700001003A00000006008182CF00DE
:101000000500E00010003E008082CF00EE8242002A
:101010007028E1000400390007003E0080007800DD
:101020000000EB000E003700708312008600DE0027
:101030000500DD000A003700708352008600DD00E5
:101040000000EB0006003700E28252008508DD0058
:10105000708312000603DE00868070000500DD004C
:101060007507B0000501EA000400A60000000600B4
:1010700060001000E080180000000600881F780063
:10108000030478000300E00007003D00600010004A
:10109000E080180060011900E081190002003B00A7
:1010A00001F02D00030037000400070008F0A7003E
:1010B00001F0A0004F04780000000600889FBE00E9
:1010C0008A9FBE00008270000402710004827100D9
:1010D000260032000004BE000200BE006011B8000D
:1010E0006B092000950220000182CF000A00390020
:1010F0000541B1000082CF00070039000541B10071
:101100000982CF00040039000541B1000882CF00F8
:10111000010039000541B1000542520012003200C1
:101120000A003B0082817100610164008100D100EE
:101130000080D3008984D3000884D3008B05E800A5
:101140000442E800F7FF3A000700370008044400B3
:1011500089844C0000004800818048008B05E9002C
:101160000442E900F9FF3A00030007004F05BE0002
:101170004F04BE0000000600810020006180550081
:101180000B003D000B00200061FE2F000100E1007C
:101190001D00340082817100610164008904D10066
:1011A0000884D3000000E800FAFF3A007100200034
:1011B000610064000300700002006000090032005A
:1011C00061044400E0844C000988A5000500320059
:1011D0008B05E8006808E10002003A008904D100AC
:1011E0000884D300F20F20000258E10005003D0002
:1011F000C75DDD00F907B20089807500080078003E
:10120000000006000BF827008B00780000000500A6
:1012100054450000535400005F5000004D50000042
:101220005F4D00004F4400004520000031360000B3
:1012300030320000004E000045570000204C0000F6
:10124000494200005F5000004D5000000054000073
:101250002D3E0000004800002D3E00000050000020
:101260002D3E0000002000006D6D0000486700006A
:1012700000000000D422A9000000FB0040138800F9
:1012800060A2AB00FEFF3A00401380006822EF002E
:1012900060A2AB00FEFF3A00D422A80040138000F9
:1012A00000000600889FBE000044780008407800D7
:1012B000F0FF0700C804DD000840E800EDFF07006C
:1012C0000080FB00090070004F04BE000000060013
:1012D000F4FF0700C800DD004800DE000080700059
:1012E00000000600FAFF3700D422A9000000FB002E
:1012F0000070A1004013880060A2AB00FEFF3A001E
:10130000401380008100FB004113880060A2AB0005
:10131000FEFF3A0040138000D422A800000006001F
:10132000D422A90011C0B30020CFB300EEFF070004
:1013300051C2B30040CFB300EBFF0700D422A80096
:1013400000000600889FBE008A9FBE008C9FBE00E2
:101350008E1F780080C8B300DDFF07006104B8006D
:10136000A0C8B300DFFF070000077800C0C8B300C3
:10137000DCFF070000067800A0CFB300C9FF07001C
:101380008000EB00480DDD00C805DE008B05750010
:101390004805DD00C0CFB300B6FF07000080FB00AA
:1013A0008000EB0000057500818575004858DD0060
:1013B0004851DE0002017000C859DE0008015100EA
:1013C000898159000200BE00BFFC07004409DD000E
:1013D0004C00DE0000007100CC08DE006161B90045
:1013E000B9FC0700CE0EDE00420ADD004E06DE002C
:1013F0000C0672004959DD004750DE000000710004
:10140000C758DE000804440089844C0008005000DE
:10141000898058006171B900ABFC0700450ADD0006
:101420004B00DE0000007200CB08DE000C00400024
:101430008D80480020408800314088005200200004
:1014400003002000A0FC07000008B0000180B000ED
:10145000480ADD004801DE0002017200C889DE0092
:101460000200BE006EFC070002002000832C240056
:101470009BFC070049FC07004F0778004F06BE00A1
:101480004F05BE004F04BE0000000600E88747007D
:10149000889FBE008A9FBE008C9FBE008E1F780072
:1014A00010CAB30073FF07008042780010CEB3006B
:1014B00085BF9F008BFF07000002780030CEB3008D
:1014C000F4B79F006BFF07000046780040CEB300E2
:1014D00068FF07008045780050CEB30065FF070025
:1014E0000045780060CEB30062FF070080467800B8
:1014F00050CEB3005FFF07008040780070CEB3008D
:10150000E1B79F005BFF070000477800D0CFB30032
:1015100064FF070008402D00E9FF2F0022408000F3
:10152000334080000204440083844C006103B8000F
:101530004E39DD00C231DE00830171004E31DD0025
:101540006F0565008B85FB00C45DDD000A857500B5
:10155000CFD5DE00C455DD000A0020000A05510089
:101560008B855900EFB097000180FB004400DE003E
:101570008D86FB00C46EDD0000807600CF80DE002B
:101580000801BE0050FC07000005550081855D0084
:1015900000002400010020000A0540008B8548005F
:1015A000C159DD004F55DE000A857100CF5DDE00B8
:1015B0000C80FB008000EB000801BE0042FC07002D
:1015C000CB0EDE00450BDD004B06DE000C06730083
:1015D00000002800010020000C0640008D86480015
:1015E0000E80FB00CF80DE000801BE0036FC070045
:1015F000CA09DE00460BDD004A01DE00020173006D
:101600000C00BE0030FC07004609DD004A00DE0089
:1016100000007100CA08DE00020020000302200062
:1016200000004100818049007FB297006121B9002C
:1016300025FC0700020022000300200000004100FA
:1016400081804900C209DD004E00DE00008071008B
:10165000CE08DE000A01BE001BFC07000004BE002D
:10166000CF09DE00410ADD004F01DE0002017200F9
:101670000200BE0014FC0700490BDD004700DE003D
:1016800000007300C708DE008FBA97000581FB00D9
:101690008001EB000CFC0700C409DE004C0ADD00F1
:1016A0004401DE00020172000204540083845C00E5
:1016B0000000200001902100800F5400818F5C0009
:1016C000010036000004BE00444BDD004C40DE004B
:1016D00000007300CC48DE00D4FB070002002000AD
:1016E00003A82300DDFC0700ACFB07004F077800D0
:1016F0004F06BE004F05BE004F04BE008F00B10074
:1017000000000600F6874700889FBE008A9FBE0043
:101710008C9FBE008E1F7800E0C8B300ECFE07006F
:101720000006780000C9B300EEFE0700000778004D
:1017300020C9B300EBFE07008006780040C9B30063
:10174000E8FE0700D0B79F0060C9B300E5FE0700C0
:10175000C0B79F0080C9B300E2FE07000003780015
:10176000A0C9B30086BF9F00DEFE0700B0B79F0090
:10177000C0C9B300DBFE0700A0B79F00E0C9B300FB
:10178000D8FE070090B79F0070CFB300C5FE0700DA
:101790000002780090CFB300F4B79F00B5FE0700B9
:1017A0008042780028408000394080008984D10040
:1017B0000884D30000602000F1FF2F0008044000DF
:1017C000898448004E48DD004241DE00020170007D
:1017D000C2C9DE000200BE00E5B79F00BAFB0700E9
:1017E0000005BE006170B9000801BE00B6FB07002D
:1017F0008181D1000081D300F2AF9F0083B79F00A9
:101800006168B900C35BDD004D51DE0002817300E9
:10181000CDD9DE00ACFB0700CD0BDD004301DE00BF
:1018200002817300C389DE007FA897008FB0970004
:1018300000014100818149004298DE00CF98DE001E
:1018400002002800030020000000410081804900C0
:101850006161B8009CFB07004109DD004F06DE0016
:101860000C067100CF8EDE000000EB007FB2970007
:10187000EFB297000FBB9700E00F5600E08F5E00BD
:10188000700032006121B8004818DD00C810DE0089
:10189000810070004810DD000582FB008002EB0033
:1018A00004027000858270006130B900455BDD0084
:1018B0004B51DE0002017300CBD9DE00F4B79F006C
:1018C000E5B79F0080FB07000005BE00CFB397007F
:1018D0006138B9000801BE007BFB07000001400031
:1018E000818148000205450083854D004E58DD008A
:1018F0004251DE0002017000C2D9DE007FB29700C3
:10190000EFB297004C2BDD004420DE000000730096
:10191000C428DE0060001000E08018005FB297006D
:101920006123B900C033DD0006002000020343003C
:1019300083834B00443ADD004C31DE00020172002B
:10194000CCB9DE00020050008380580052C3200052
:10195000030020005CFB07000200200003352C0080
:101960000000410081804900060033000000400073
:10197000818048000C01BE0043FB07000004BE004C
:10198000040037000C01BE003FFB070000044000CC
:1019900081844800C34DDE004D4BDD004345DE0031
:1019A0000A057300CE4BDD004240DE00008073006C
:1019B000C248DE002FB297006121B90042FB070048
:1019C000430BDD004D06DE000C067300CD8EDE00FD
:1019D000BFB397004FB8DE000C8643008D06480069
:1019E0000A01BE000A00BE0037FB07004309DD0004
:1019F0004D00DE0000007100CD08DE001FB2970030
:101A00006121B90030FB0700440BDD004C01DE0012
:101A100002017300CC89DE000C0141008D81490078
:101A2000CC1BDD004410DE0000807300C498DE0093
:101A30000000440081804C00520820000300200078
:101A400011FB07004F0778004F06BE004F05BE0090
:101A50004F04BE006F01B10000000600881F78002F
:101A6000FA0007002A0107003E010700A600070050
:101A700080902800E000070000002E0001012000F7
:101A80003F01070041C0B30010C0B300EA000700E7
:101A9000B0912800D800070000002C00810A200027
:101AA000370107001EFE070026FE070040408800A1
:101AB00000002B00110020003101070073FE070019
:101AC0000040880000002B00110020002C010700BE
:101AD0000CFF070010408800D1000700709228001A
:101AE000C5000700404080004206200011000900A8
:101AF0000200D800A2002000110009000200D80056
:101B00000104E000030032000143B0001000200097
:101B1000AB00070040408000A20020001100090037
:101B20000200D800110009000200D800010178006D
:101B30000204E0000400320000C3B3008040410012
:101B4000100020009E00070041408000A8002000F7
:101B5000110009008800D8000143B00010002000E7
:101B60009700070021CBB30010002000940007006D
:101B700031C4B3001000200091000700C1C2B300BF
:101B8000100020008E00070091C0B3000040EB0061
:101B9000A9000700B09228009700070000408000CD
:101BA00042062000110009000200D80011000900BF
:101BB0000800D800010478000804E00004003200A6
:101BC00000C3B30080404400100020007C000700E8
:101BD00000408000A2002000110009000200D8008F
:101BE000110009000200D800010178000204E000A1
:101BF0000400320000C3B300804041001000200008
:101C00006F00070001408000A800200011000900BB
:101C10008800D8000143B0001000200068000700D1
:101C200051C2B30010002000650007008040EB00A7
:101C300010C0B30080000700F09228006E0007007B
:101C400010408000823E2000110009000200D800F0
:101C5000110009000800D800010478000804E00021
:101C60000400320000C3B300804044001000200094
:101C700053000700104080004206200011000900B8
:101C80000200D800A2002000110009000200D800C4
:101C90000104E000030032000143B0001000200006
:101CA0004700070010408000A2002000110009003A
:101CB0000200D800110009000200D80001017800DC
:101CC0000204E0000400320000C3B3008040410081
:101CD000100020003A00070011408000A200200000
:101CE000110009008200D8000143B000100020005C
:101CF00033000700309328003F00070000002E004B
:101D00000101200066FF3700F03B2800003088000A
:101D1000F03F200010308800100020006030880064
:101D200000032800200888000021EF00F07C20003C
:101D30000001E300FDFF36000426EF0080032000D1
:101D4000403088000021EF0000088000E20F5000C2
:101D5000FDFF3600C0002000403088000021EF0069
:101D600000088000E20F5000FDFF36001000200048
:101D7000403088000021EF00300620000001E30021
:101D8000FDFF360060002000403088000021EF0099
:101D9000300620000001E300FDFF360000000600D1
:101DA0000206E200FEFF350020308800403080004F
:101DB0000206E200FEFF3500403080000000060011
:101DC000889FBE0000047800814478000000EB008A
:101DD000F3FF07000004E000FCFF35000206E2000C
:101DE000FEFF3500283088008904FB004930880058
:101DF0004F04BE0000000600881F78000004780031
:101E00000200370010002000EDFF0700B840780006
:101E10000104E000FBFF3A004F04780000000600D8
:101E200011C0B3000000EB00E5FF370021C0B30094
:101E30000000EB00E2FF37004600DD0080C04000FC
:101E40000174A0000000EB00DDFF3700C422EF00AA
:101E5000CC22EF00D422EF00707920000016880019
:101E6000B0FF2F0040168800C03F20008016880079
:101E70006820EF006A20EF00C622EF00CE22EF00BC
:101E8000D622EF00C00F200060198800F00B200060
:101E90004207B60062042000730520002174200070
:101EA00082487800834878008048780000FE2F0040
:101EB0008436800084006000A100B3008136880071
:101EC0001436800084006000B100B3001136880031
:101ED000AC06B6003000B30060358800F10F2E006C
:101EE000803680008080600000C02000010070000B
:101EF00080368800103A80000060A0002174200025
:101F00008248780083487800804878000000060006
:101F100000102300203A88004827EF007027EF00C8
:101F20007227EF007427EF00A10920002200200093
:101F300080072000337420008049780081497800B0
:101F400082497800710520000001EB006004200048
:101F50002374200080497800814978008249780004
:101F6000000006000006200010138800100020006A
:101F700020138800C000280000138800000006001D
:101F8000F03FB1000180B10006003500EE0309000A
:101F900000000000403FB1000180B100FBFF3D00A8
:101FA0001000B000203FB0000200350000800900A2
:101FB0000000000000000600080800000200000009
:101FC00002000000150300000008000004000000EB
:101FD00000000000040800000400000000000000F1
:101FE0000A080000020000000000000000000000DD
:020000040001F9
:0857F8007E7A00007F3F0000F3
:00000001FF
