:100000000002040000000000C8020000C802000056
:10001000C8020000C8020000C8020000C8020000B8
:10002000C8020000C8020000C8020000C8020000A8
:10003000C8020000C8020000C8020000C802000098
:10004000C8020000C8020000C8020000C802000088
:04034800C8020000E7
:10040000CF8020000E7F22000E0188000000000037
:10041000000020000000E000020032000001200087
:1004200020028800140007005B0007000000E000C5
:1004300003003A00A027210001002000020037003D
:100440000000200001002000810F70000100320038
:1004500014000700000020000000E000020032004D
:100460000000020000000000920E020000000000E8
:100470000040DA000000FE004440A90020032000F4
:100480000000E0000300320000002000A00188000E
:100490004440A800000006008A1F78008B1F7800E7
:1004A0000000060091018800800478000000EB0045
:1004B0001A003700E284440032A0B4009905BA0063
:1004C000E284440032A0B4009906BA00E2844400F9
:1004D00032A0B4000006EB00476FDE00FD07B2005B
:1004E000636CE10003003A00EBFF07000000EB0043
:1004F0000A003700606CE10004003A00005DEB0088
:100500008B05E900FDFF3E00040037006168E10053
:10051000010032000086EB000B00070019C7BA008B
:100520001905BA000E04E00003003A000A00E000DA
:10053000E0FF3A0000000600FE07B2009E018800BE
:100540008A047800F5FF3700395DBA008B05E900B1
:100550000C003200295DBA008B05E900080032006A
:100560000C00E00003003A00E284440032A0B40032
:10057000F5FF370019DDBA008B05E900FAFF3A00F4
:100580008904E800E184440032A0B40000000600C1
:100590000040DA000000FE00000005000001BE007F
:1005A000240007000470A70003F0A1006509B10052
:1005B000160032000D0035006828E1000600350005
:1005C000F0FF2F00F1FF27000300E00013003B00C5
:1005D0000100280000000500000040008180480064
:1005E0008502E900FCFF3A0008003700F88F42005E
:1005F00002003C008000EB00000005008100D100FB
:100600000080D3008502E800FCFF3A000300E00010
:1006100002003B0060001000E080180000000600AF
:100620004F89DE00820178008E0237006011B80029
:100630009C023700C70ADE00F107B200F50FB200D6
:1006400008003200E1CF4200020032000170A00039
:1006500024000500810F700001003200040805002D
:1006600044000500810F700002003A0014000500EC
:100670008502E9000000400081C04800FCFF3B000B
:100680000170A000240005006022B80006022000CE
:100690000000D0008180D2000482D2008582D20086
:1006A0000000A0000202520083825A0003003100C1
:1006B0000202420083824A000000A1000603E90012
:1006C000F3FF3A0000000600889FBE008A9FBE002C
:1006D0008C9FBE001B0020000202BE000586680041
:1006E00006002800060666004709DE00F20FB20089
:1006F000820032000243E80080003200C729DE0099
:10070000F30FB2007D0032000343E8007B003200AB
:10071000F107B2000170A000F507B2000570A0005B
:10072000C708DD004903DE00868070004700DD0059
:10073000C72ADD004923DE00868272004722DD00E1
:100740000305510004035000858358000300310065
:1007500000004000818048000A05E9008C1F7800F5
:100760008A9FBE00040050008580580004024200A9
:1007700085824A0000004000818048000005EB00AF
:100780000004BE006033B8000406BE000D48E1005E
:1007900056003100110009004DCCD8000C01B80002
:1007A0000D02B8008481410060824A0082835300B8
:1007B00003045C0084845C0060055D000A00E000C6
:1007C00025003A00800578000D40E1004900310025
:1007D0008800780007007800110009004D88D800D3
:1007E0000C01B8000D02B8008481410060824A000B
:1007F0006003110083835B0004045C00E0845C0000
:100800000900E00021003A004F01BE000300E000B3
:100810002B003200E3016000070673008C81710039
:1008200001003200640070004200DE004E5EDD0018
:100830000C007000C258DE0001E0A0008301070038
:10084000CF017800818071004F06BE004F05BE00C9
:100850004F04BE00000006008C8343000D044C00D2
:10086000E0844C0060054D000000E9000A00E00053
:10087000D4FF32008C8343000D044C00E0844C0014
:1008800060054D000000E900CEFF37000C03430077
:100890008D834B0060044C00E0844C000000E900B4
:1008A0000900E000D8FF32000C0343008D834B00A9
:1008B00060044C00E0844C000000E900D2FF3700E7
:1008C0004200DE004E5EDD000C007000C258DE000B
:1008D00001E0A000CF0178000300E000DAFF320061
:1008E00060001000E0801800D7FF3700F0FF2F00F5
:1008F000AAFF3700F0FF2F00B9FF37000404BE0045
:100900002F010700870678000004FD008104FD0028
:100910002B010700078366000678A300030032005E
:100920000960A7000800BE002C0037000D78A30066
:10093000020032000800BE00280037000778A3003C
:1009400026003A0001F0A10009F0A1000668A3000A
:1009500003003200F1FF2700F0FF2F00BAFF37003D
:100960000D68A300030032000800BE008C807000F8
:10097000B5FF37000768A30007003A000648A30048
:1009800003003200F1FF2700F0FF2F00AEFF370019
:100990000D48A300030032006000B8008C80700096
:1009A000A9FF37000748A3000400320001F8270020
:1009B000000020008C807000A3FF37007601070044
:1009C0000004FD008104FD000205780072010700AB
:1009D0000802BE008A01780059FF37000160A000BC
:1009E000120220005240880097FF37000100E0000B
:1009F000120032000500E00010003200889FBE00A7
:100A00008A9FBE008C9FBE000006EB0001F8A30089
:100A10000300320060001000E08018000CF0A0001D
:100A200005F8A3000300320060021200E0821A0001
:100A30000CF0A2008005EB0041FF37006000B80019
:100A40000200050003836800070028000703630015
:100A5000470ADE000480A100C71ADE000580A1005D
:100A6000F70F20000720E100420032000728E100D4
:100A700040003200889FBE008A9FBE008C1F780015
:100A8000F107B200F307B2000400E0006400320096
:100A90000170A0000500E000680032000370A000B3
:100AA00085054200EB07B1000204B8000302B8005C
:100AB0008484440060854A00020AB80084844400AB
:100AC0000A854A00030AB800040545000400330003
:100AD0000804D0008984D2000A85D2008B05E90081
:100AE0006158E1003D00350002102000090161005D
:100AF0000308200089816100F707200087836400D4
:100B000008867300C84CDE00C853DD00878474007B
:100B10004855DE000300E000060032008203760044
:100B2000040032008904E80060054D000A88A30033
:100B30000C003A00F70F20000758E10044003D0088
:100B40000A70A100C75DDD000A8575008A00730088
:100B5000090078004F0678004F05BE004F04BE0024
:100B6000000006000A05D1008984D3008B05E80047
:100B7000F0FF3700881F7800060478009000070017
:100B8000070278000001FD008101FD008C000700D4
:100B900087027800850372000778A3000500320001
:100BA0000001FD008101FD009F0007004F04780057
:100BB00000000600850372000748A300030032000E
:100BC000F0FF2F00F1FF2700F8FF370000002000A2
:100BD00001F8270088807000F4FF37008801780052
:100BE0004848DD00808171004848DE00C850DD00C3
:100BF00001007000C850DE00060478000B01780088
:100C00001600070088807000D2FF37000500E00062
:100C100005003200170020003A0007009DFF370052
:100C200081037000F9FF3A00860078004F067800D3
:100C30004F05BE004F04BE00000005008303710095
:100C4000F9FF3200270020002E00070094FF370034
:100C500001F8270086807000F4FF37000100E000F3
:100C600026003200610111007810E10023003C00F1
:100C70006022B8007010E1000400350080027800A6
:100C8000010078008000EB00700151000200E000DC
:100C90000900340070031100062ADD00822ADE00FC
:100CA0008603DD00878272000200DE00860BDD0015
:100CB000070070008208DE0084817100F4FF2700C5
:100CC0000482620084817100040028008482620032
:100CD0006102600005F0A6000000060004827100B9
:100CE000070032000000E800E08048000000060035
:100CF0000002BE006000B800EFFF37006000B800DF
:100D000000000600889FBE000004EB006138E1008F
:100D100016003A000100E00008003A00C800DE00BA
:100D20004800DD00880020000100E00003003A00D8
:100D3000C800DE004800DD00680444008184CF0064
:100D4000E9845400060034008908DD00F0831400B3
:100D50008703DE00878070000900DD00090444007D
:100D6000610214004F04BE00000006000300E00012
:100D700008003A00C811DE004811DD00880020009C
:100D80000300E00003003A00C811DE004811DD0056
:100D9000680444008384CF00E984540006003400D2
:100DA0008919DD00F08314008713DE00878171004C
:100DB0000911DD0009044400E1021400E9FF3700D5
:100DC0002700200001F0A70017002000470BDE00DD
:100DD000F60FB200040032000643E8000A003200B9
:100DE0004702B3000000060001037800F607B200D6
:100DF0000603700002003A000703B300000006007B
:100E00008702B3000000060001037800F607B20075
:100E100006037000020032000770A0000000060008
:100E20000760A000000006000478A3000400320060
:100E30000578A300030032000168A30001003A0016
:100E40000200BE000160A0000000060081017000E9
:100E5000270032008002EB0001F8A30003003200FB
:100E600060001000E080180015002000F40720004A
:100E70000202420020003400F703200087036000D4
:100E80000604200000036300020820000001610046
:100E90004700DE00C909DD0000807100C708DE00E0
:100EA0000600E000080032008703710006003200EF
:100EB0001000B0000180B0000188A30002003200E1
:100EC000C108DE000402E800F107B200F30F2000C1
:100ED0000320E10003003D004722DD008100720095
:100EE0002900370001F827000000EB00260037003A
:100EF0006000B80000000600680212007F20E100D8
:100F0000020034006000B8001F0037006011B80014
:100F10007020E100040035008001780001007800B5
:100F20008000EB00700252000400E0000900340071
:100F3000F00312000719DD008419DE000703DD004D
:100F4000868171000400DE00070BDD0006007000E2
:100F50008408DE00F7FF27008383630087037100A6
:100F60000600280003036300070032000700E000CA
:100F700003003A0061016000028173000200320048
:100F80001000B0000180B0000500A60000000600BF
:100F900001F0A000000006004F0ADE004709DE0055
:100FA000F107B200F20FB2000B003200F207B100FD
:100FB0000170A000C708DD00C901DE008380700059
:100FC0004700DD000400A6000000060060001000DD
:100FD000E080180000000600810F700001003A0058
:100FE000000006008182CF000500E00010003E00F6
:100FF0008082CF00EE8242007028E10004003900B8
:1010000007003E00800078000000EB000E00370073
:10101000708312008600DE000500DD000A00370044
:10102000708352008600DD000000EB0006003700F0
:10103000E28252008508DD00708312000603DE00A4
:10104000868070000500DD007507B0000501EA002C
:101050000400A6000000060060001000E0801800F8
:1010600000000600881F7800030478000300E000F9
:1010700007003D0060001000E080180060011900CA
:10108000E081190002003B0001F02D000300370051
:101090000400070008F0A70001F0A0004F0478004A
:1010A00000000600889FBE008A9FBE00008270007C
:1010B0000402710004827100260032000004BE00A8
:1010C0000200BE006011B8006B09200095022000EC
:1010D0000182CF000A0039000541B1000082CF0033
:1010E000070039000541B1000982CF000400390032
:1010F0000541B1000882CF00010039000541B1006F
:1011000005425200120032000A003B008281710049
:10111000610164008100D1000080D3008984D30084
:101120000884D3008B05E8000442E800F7FF3A008A
:10113000070037000804440089844C000000480080
:10114000818048008B05E9000442E900F9FF3A007C
:10115000030007004F05BE004F04BE00000006005C
:1011600081002000618055000B003D000B00200035
:1011700061FE2F000100E1001D003400828171003A
:10118000610164008904D1000884D3000000E800F4
:10119000FAFF3A0071002000610064000300700053
:1011A000020060000900320061044400E0844C0049
:1011B0000988A500050032008B05E8006808E100F9
:1011C00002003A008904D1000884D300F20F200005
:1011D0000258E10005003D00C75DDD00F907B200DF
:1011E0008980750008007800000006000BF82700D1
:1011F0008B007800000005005445000053540000A7
:101200005F5000004D5000005F4D00004F44000053
:10121000452000003136000030320000004E000052
:1012200045570000204C0000494200005F5000007C
:101230004D500000005400002D3E0000004800000A
:101240002D3E0000005000002D3E00000020000058
:101250006D6D00004867000000000000D422A90066
:101260000000FB004013880060A2AB00FEFF3A00C4
:10127000401380006822EF0060A2AB00FEFF3A003E
:10128000D422A8004013800000000600889FBE0002
:101290000044780008407800F0FF0700C804DD0033
:1012A0000840E800EDFF07000080FB000900700027
:1012B0004F04BE0000000600F4FF0700C800DD0078
:1012C0004800DE000080700000000600EFFF07000D
:1012D000C800DE004800DD0000807000000006004D
:1012E000D422A9000000FB000070A1004013880078
:1012F00060A2AB00FEFF3A00401380008100FB00BB
:101300004113880060A2AB00FEFF3A00401380004A
:10131000D422A80000000600D422A90011C0B30006
:1013200020CFB300EEFF070051C2B30040CFB3009F
:10133000EBFF0700D422A80000000600889FBE0033
:101340008A9FBE008C9FBE0080C8B300CFFF0700FD
:101350004805DE004800DD000A0570008005EB004E
:10136000A0C8B300C9FF070000047800C0C8B300DC
:10137000C6FF070080047800A0CFB300C3FF0700BA
:101380008000EB00480EDD00C806DE008D0676000A
:101390004806DD00C0CFB300B0FF07000080FB00AF
:1013A0008000EB0000067600818676004869DD004B
:1013B0004860DE0000007100C868DE000A005000CE
:1013C0008B8058000089B900020141000000B8007C
:1013D00081004100C409DD004C00DE000080710086
:1013E000CC08DE004849DE00C84CDD008284740071
:1013F000614AB9000989B90000AAB9000201420096
:101400000900B800810041004209DD004E00DE0005
:1014100000007100CE08DE00C969DD004766DE000D
:101420000C867100C76EDE000A0545008B854D00F5
:101430000A0556008B855E004841DE004844DD0009
:10144000020474006142B90008D9B9000AAAB900BF
:10145000020142000855B8008B0541004559DD00E6
:101460004B55DE000A057100CB5DDE000000450033
:1014700081804D0020408800314088006509B90016
:101480006500B800810041000008B0000180B00094
:10149000C809DD004801DE0002817100C888DE0055
:1014A000020078005EFC070002002000832C24006C
:1014B00085FC070039FC07004F06BE004F05BE0043
:1014C0004F04BE0000000600E4874700889FBE006E
:1014D0008A9FBE008C9FBE008E1F780010CAB3008A
:1014E0005EFF07008044780010CEB30067FF07005E
:1014F0000004780030CEB30058FF07008045780024
:1015000040CEB30055FF07000047780050CEB3002F
:1015100052FF07008040780060CEB30081BF9F007B
:101520004EFF07000046780050CEB3004BFF070087
:101530008046780070CEB30048FF07000045780071
:10154000D0CFB30051FF070002402D00E3FF2F0072
:10155000244080003540800004014100858149001D
:101560006103B8004E3ADD00C232DE00850272002F
:101570004E32DD008FB89700EF8060000E87FB00D1
:101580004477DD0001007700CF80DE00C400DD007D
:10159000000020000000520081805A008D86FB0070
:1015A000C46EDE000C86FB004466DD008D0676000E
:1015B000616AB90002AAB9000D9BB9000402430098
:1015C000026EB8008D0642000C0050008D8058005D
:1015D00004002400050020000000420081804A0031
:1015E000C10ADD004F00DE0000807200CF08DE007F
:1015F0000B82FB00049BB9000222B8008502430065
:10160000452BDD004B22DE0004027300CB2ADE00F6
:1016100006002800070020000402430085824B00DA
:101620000A85FB006153B90002BBB9000A9EB900EC
:10163000060346000251B80083014300461BDD004B
:101640004A11DE0002017300CA19DE0002ABB900C4
:10165000049DB900060345000221B8008301430040
:10166000461ADD004A11DE0002017200CA19DE00CE
:1016700004002000050220000201420083814A008C
:101680004842DE004844DD00040474006143B900B0
:10169000089AB90002BBB900040243000811B8005F
:1016A00083014200040022000500200002014200E4
:1016B00083814A00C21ADD004E11DE0002817200F1
:1016C000CE19DE00009AB900028BB9000402430073
:1016D0000011B80083014200411BDD004F10DE0005
:1016E00000007300CF18DE00008AB9000402420037
:1016F0000000B80081004200490ADD004700DE001A
:1017000000007200C708DE008984FB00098AB90066
:101710000900B80081004200CC0ADD004400DE0070
:1017200000807200C408DE00000151008181590070
:101730000000200001902100800F5100818F59008E
:10174000010036000001BE00441BDD004C10DE002D
:1017500000007300CC18DE00B4FB0700020020007C
:1017600003A82300B7FC07008CFB07004F07780095
:101770004F06BE004F05BE004F04BE004F00B10033
:1017800000000600FA874700889FBE008A9FBE00BF
:101790008C9FBE008E1F7800E0C8B300BBFE070020
:1017A0000005780000C9B300B8FE0700800078008B
:1017B00020C9B300D1B79F00B4FE070080057800B0
:1017C00040C9B300B1FE070080BF9F0060C9B300ED
:1017D000AEFE07000006780080C9B300ABFE07002C
:1017E00080067800A0C9B300A8FE070000047800B6
:1017F000C0C9B300A5FE070080047800E0C9B300AB
:10180000A2FE070080B79F0070CFB3009FFE0700C5
:10181000D0AF9F0090CFB30090FE0700E0EF9F0095
:1018200024408000354080008582D1000482D300AE
:1018300006602000F7FF2F000402430085824B0062
:101840004E28DD004223DE000603700042A8DE00C1
:101850000681B900020041000633B800870340004A
:10186000DFB09700C809DE004808DD000300700003
:101870006101B900B2B79F00C3B79F00CFB1970015
:101880000499B900B2B79F00C3B79F0000A9B9007F
:10189000BFB19700830041000401B800B2B79F00B8
:1018A000C3B79F0083814000C3B79F003FB097003C
:1018B000CFB097008180D1000080D30090B79F0007
:1018C000A1B79F004858DE00C858DD008085700031
:1018D0006159B900B2B79F00C3B79F00C339DD009B
:1018E0004D31DE0002817100CDB9DE00CFB097002E
:1018F0000288B900B0B79F00C1B79F000B98B9002C
:10190000E0AF9F00F1AF9F00BFB0970081014000A2
:101910000258B800B0B79F00C1B79F008180410056
:10192000C1B79F003FB19700CFB19700CD1DDD003B
:101930004310DE0000807500C398DE001FB19700E1
:10194000AFB1970002004000838048004289DE006A
:10195000CF89DE00000028000100200002014000C5
:10196000838148004850DE004855DD0000007500C6
:10197000009DB900BAB79F00CBB79F000010B80018
:1019800081004500C10DDD004F01DE0002817500C0
:10199000CF89DE000000EB00E00F5100E08F59001E
:1019A000980032005FAF97006170B800480DDD000D
:1019B000C805DE008B0575004805DD00BAB79F003D
:1019C000CBB79F00EFED97000B80FB008000EB0092
:1019D0003FB59700CFB5970000057500818575006C
:1019E000BAB79F00CBB79F004868DE00C86EDD0025
:1019F000008076006105B9009AB79F00ABB79F00E1
:101A0000C53DDD00CB36DE008D867500CBB8DE002F
:101A10002FB797000DF3B900008DB90006034500FC
:101A20000D00B80081004300C866DE004866DD0096
:101A30008D067600616BB90004BBB9000DADB9002D
:101A40009AB79F00ABB79F0006034500046AB80031
:101A5000850243000402420085824A0004004000DF
:101A600085804800CE0DDD004203DE000683750050
:101A7000C28BDE003FB29700CFB297004C2DDD0045
:101A80004420DE0000007500C428DE006000100065
:101A9000E08018008FBD9700485ADE000B077800E1
:101AA000C875DD0004827500CFA2DE00C022DD0013
:101AB000040020000603420087834A00443DDD0005
:101AC0004C32DE0004027500CCBADE000402500085
:101AD0008582580051C3200001ABB9000120B80035
:101AE000810043000400200005352C000000420066
:101AF00081804A0049003300000040008180480096
:101B0000E1FA070080017800010178000300780005
:101B100082007800C309DE00CD0DDD004301DE0048
:101B200002817500C20ADE004E0FDD004202DE00B7
:101B300004027700484BDE00C84CDD008684740048
:101B4000614DB90009ABB90004DDB90006034500D9
:101B50000922B80085024300C32CDD004D23DE00BE
:101B600006837400CDABDE004842DE004844DD0051
:101B7000040474004FC5DE000604440087044D00D1
:101B8000029AB900040242000211B8008301420027
:101B9000CD1BDE00C31DDD004D13DE000683750086
:101BA0000FB79700C871DE004871DD008301710036
:101BB000611DB90003BAB90006DDB9000402450091
:101BC0000331B80083014200441BDD004C12DE00EB
:101BD00004027300CC9ADE000802420089824A00A7
:101BE000CC2CDD004421DE0002817400C4A9DE009B
:101BF00002004000838048005208200003002000BB
:101C0000A1FA07004F0778004F06BE004F05BE003F
:101C10004F04BE00AF01B100000006009AFA0700B1
:101C20000001BE000200BE000000400081804800AC
:101C3000C309DE00CD0DDD004301DE000281750029
:101C4000C20ADE004E0FDD004202DE000402770011
:101C5000484BDE00C84CDD0086847400614DB9003D
:101C600009ABB90004DDB900060345000922B8003C
:101C700085024300C32CDD004D23DE000683740083
:101C8000CDABDE004842DE004844DD0004047400B1
:101C90004FC5DE000604440087044D00029AB900D7
:101CA000040242000211B80083014200CD1BDE0095
:101CB000C31DDD004D13DE00068375000FB79700CE
:101CC000C871DE004871DD0083017100611DB9003B
:101CD00003BAB90006DDB900040245000331B800BB
:101CE00083014200441BDD004C12DE00040273003D
:101CF000CC9ADE000802420089824A00CC2CDD002A
:101D00004421DE0002817400C4A9DE00020040000C
:101D10008380480052082000030020005AFA070080
:101D2000B8FF3700889FBE008A1F78009601070021
:101D3000C6010700DA01070036010700C08F28003E
:101D40007A01070000002E0001012000DB010700DE
:101D500041C0B30010C0B30086010700F090280016
:101D60007201070000002C00810A2000D301070047
:101D7000BA4721007866260067FD07006FFD07005F
:101D80004040880000002B0011002000CB0107001C
:101D9000CDFD07000040880000002B00110020004E
:101DA000C601070077FE0700104088006B0107009E
:101DB000B09128005D010700464080000AB1B900DB
:101DC000C398DE004FB1DE0082805000A3002000E7
:101DD000110009008300D8000104E000FD003A0072
:101DE00008B2B900C2A8DE00828050000889B9009C
:101DF000C299DE004F89DE00028151006A11B900EC
:101E000082C05000D1003A00A90020001100090052
:101E10000903D8000143B000100020002F01070083
:101E200021CBB300100020002C01070031C4B30007
:101E30001000200029010700C1C2B30010002000DB
:101E40002601070091C0B3000040EB0049010700E4
:101E5000F091280035010700064080000AB1B90062
:101E6000C398DE004FB1DE008280500011000900EF
:101E70008900D8000104E000A4003A0008B2B900CB
:101E8000C2A8DE00828050000889B900C299DE0035
:101E90004F89DE00028151006A11B90082C05000F2
:101EA0007E003A00A9002000110009000903D800B3
:101EB0000143B000100020000801070051C2B30028
:101EC00010002000050107008040EB0010C0B300A7
:101ED00028010700309228001401070016408000F6
:101EE000823E2000110009000203D8008000FD009E
:101EF000110009008900D8000104E00059003A00EF
:101F00000AB1B900C398DE004FB1DE0082805000F4
:101F1000A3002000110009008300D8000104E000A4
:101F200040003A0008B2B900C2A8DE00828050002A
:101F30000889B900C299DE004F89DE000281510094
:101F40006A11B90082C0500026003A00A2002000A9
:101F5000110009000203D8000143B0001000200066
:101F6000DE00070070922800F000070000002E003D
:101F70000101200051010700E7FC0700EFFC07000A
:101F80004040880000002B00110020004B0107009A
:101F90004DFD07000040880000002B0011002000CC
:101FA00046010700F7FD070010408800EB0007001E
:101FB000B0912800DD000700464080000AB1B9005A
:101FC000C398DE004FB1DE0082805000A3002000E5
:101FD000110009008300D8000104E00080FF3200F6
:101FE0007C0037000143B00010002000BB00070058
:101FF00016408000A2002000110009000203D80052
:102000000143B00010002000B400070070922800C7
:10201000C600070000002E00010120002701070074
:10202000D5FF37000143B00010002000AB000700CF
:10203000164080004FB1DE0008B2B900C2A8DE0031
:10204000828050000889B900C299DE004F89DE0005
:10205000028151006A11B90082C05000BBFF3200FA
:10206000E0FF37000143B000100020009B00070094
:10207000164080000AB1B900C398DE004FB1DE00FF
:1020800082805000A3002000110009008300D800C6
:102090000104E000A3FF3200E2FF37000143B0007B
:1020A000100020008D00070006408000A9002000DD
:1020B000110009000903D8000143B00010002000FE
:1020C0008600070051C2B300100020008300070003
:1020D0008040EB0010C0B300A6000700309228003B
:1020E0009200070016408000823E20001100090087
:1020F0000203D8008000FD00110009008900D8000B
:102100000104E0007EFF3200D6FF37000143B0003B
:102110001000200071000700064080004FB1DE0073
:1021200008B2B900C2A8DE00828050000889B90058
:10213000C299DE004F89DE00028151006A11B900A8
:1021400082C0500057FF3200D4FF37000143B00077
:10215000100020006100070046408000A900200018
:10216000110009000903D8000143B000100020004D
:102170005A00070021CBB3001000200057000700D1
:1021800031C4B3001000200054000700C1C2B300E6
:10219000100020005100070091C0B3000040EB0088
:1021A00074000700F09128006000070006408000DE
:1021B0000AB1B900C398DE004FB1DE008280500042
:1021C000110009008900D8000104E0002BFF320053
:1021D000CEFF37000143B000100020003F00070091
:1021E000464080004FB1DE0008B2B900C2A8DE0050
:1021F000828050000889B900C299DE004F89DE0054
:10220000028151006A11B90082C05000FEFE320006
:10221000CEFF3700F03B280000308800F03F200060
:102220001030880010002000603088000003280073
:10223000200888000021EF00F07C20000001E3006E
:10224000FEFF36000426EF008003200040308800A7
:102250000021EF0000088000E20F5000FDFF360073
:10226000C0002000403088000021EF0000088000FE
:10227000E20F5000FDFF36001000200040308800C3
:102280000021EF00300620000001E300FEFF3600D1
:1022900060002000403088000021EF003006200060
:1022A0000001E300FEFF36000000060002002800E7
:1022B0001330800083006100FDFF3A002030880069
:1022C0004030800001002800123080000280600051
:1022D000FDFF3A00403080000000060002002800A8
:1022E0001430800084016100FDFF3A000426EF00F5
:1022F000433080001430800084016100FDFF3A000B
:10230000433080000304E000F5FF3500030028009F
:102310001430800004816100FDFF3A002030880005
:102320000100FB004030880000000600881F780094
:10233000904078000104E0000600320000047800BC
:1023400010002000E5FF0700D84078000104E000FD
:10235000FBFF3A004F0478000000060011C0B300F4
:102360000000EB00DDFF370021C0B3000000EB00F0
:10237000DAFF37004600DD0080C040000174A00095
:102380000000EB00D5FF3700C422EF00CC22EF00A5
:10239000D422EF007079200000168800B0FF2F00D3
:1023A00040168800C03F2000801688006820EF009B
:1023B0006A20EF00C622EF00CE22EF00D622EF0007
:1023C000C00F200060198800F00B20004207B60003
:1023D00062042000730520002174200082487800E8
:1023E000834878008048780000FE2F008436800003
:1023F00084006000A100B30081368800143680009C
:1024000084006000B100B30011368800AC06B6004D
:102410003000B30060358800F10F2E008036800058
:102420008080600000C020000100700080368800BD
:10243000103A80000060A0002174200082487800DB
:1024400083487800804878000000060000102300D0
:10245000203A88004827EF007027EF007227EF002E
:102460007427EF00A109200022002000800720002F
:1024700033742000804978008149780082497800CF
:10248000710520000001EB0060042000237420008F
:102490008049780081497800824978000000060070
:1024A0000006200010138800100020002013880070
:1024B000C00028000013880000000600F03FB100B3
:1024C0000180B10006003500EE03090000000000A5
:1024D000403FB1000180B100FBFF3D001000B000A3
:1024E000203FB0000200350000800900000000001D
:1024F00000000600080800000200000002000000C2
:1025000015030000000800000400000000000000A7
:102510000408000004000000000000000A08000099
:0C252000020000000000000000000000AD
:020000040001F9
:0857F8007E7A00007F3F0000F3
:00000001FF
